:020000040800F2
:10000000B857002439030008192600085B040008CB
:100010005B04000895070008E52C000800000000BC
:100020000000000000000000000000004B0300087A
:100030009108000800000000A70300083B28000802
:100040005303000853030008530300085303000838
:100050005303000853030008530300085303000828
:1000600053030008530300085303000899070008CE
:10007000E507000815080008610800085303000898
:1000800053030008530300085303000853030008F8
:1000900053030008530300085303000853030008E8
:1000A00053030008530300085303000853030008D8
:1000B00053030008530300085303000853030008C8
:1000C00053030008530300085303000853030008B8
:1000D00053030008752C000853030008530300085D
:1000E00053030008530300080000000053030008F6
:1000F0005303000853030008530300085303000888
:100100005303000853030008530300085303000877
:10011000712C000853030008530300085303000820
:100120005303000853030008530300085303000857
:100130005303000853030008530300085303000847
:1001400000000000000000000000000000000000AF
:100150005303000853030008530300085303000827
:100160005303000853030008530300085303000817
:100170005303000853030008530300085303000807
:1001800053030008530300085303000853030008F7
:1001900039280008530300085303000853030008DC
:1001A00053030008530300085303000853030008D7
:1001B00053030008530300085303000853030008C7
:1001C00053030008530300085303000853030008B7
:1001D00053030008530300085303000853030008A7
:1001E0005303000853030008530300085303000897
:1001F0005303000853030008530300085303000887
:100200005303000853030008530300085303000876
:100210005303000853030008530300085303000866
:1002200053030008530300085303000800000000B4
:1002300053030008530300080000000053030008A4
:100240005303000853030008530300085303000836
:100250005303000853030008530300085303000826
:100260005303000853030008530300085303000816
:100270005303000853030008530300080000000064
:100280005303000853030008530300080000000054
:10029000000000005303000800F002F800F03CF8F2
:1002A0000AA090E8000C82448344AAF10107DA45D1
:1002B00001D100F031F8AFF2090EBAE80F0013F0E7
:1002C000010F18BFFB1A43F0010318471066000026
:1002D00030660000103A24BF78C878C1FAD85207B7
:1002E00024BF30C830C144BF04680C6070470000B0
:1002F0000023002400250026103A28BF78C1FBD82F
:10030000520728BF30C148BF0B6070471FB506F0C9
:1003100066F81FBD10B510BD00F0E7F91146FFF7F4
:10032000F5FF00F01CFA00F005FA03B4FFF7F2FF46
:1003300003BC00F00DFA0000094880470948004757
:10034000FEE7FEE7FEE7FEE7FEE7FEE7FEE7FEE785
:10035000FEE7FEE704480549054A064B70470000E2
:10036000892B000899020008B8510024B8570024CE
:10037000B8530024B8530024EFF3108072B67047CE
:1003800080F310887047434A1368012B04D04FF064
:1003900001031360404A1060404A116040484FF02A
:1003A000805101607047EFF3108272B639480168DE
:1003B00051B34FF0000101603748016891B1EFF38C
:1003C00009811EF0100F08BF21ED108B21E9F00FFD
:1003D0004FF000041EF0100F08BF012441F8044D37
:1003E000006801602D490968096808C9B1E8F00F83
:1003F000002B18BFB1EC108B81F309884EF0100E62
:10040000002B18BF2EF0100E82F310884EF0040E51
:10041000704722490860EFF3148222F0040282F34D
:1004200014881D494FF0000008601A494FF0010080
:1004300008601C484FF47F01D0F8002041EA020117
:10044000016017484FF0805101601748006800684C
:1004500080F3088861B662B670471EF0040F0CBFC7
:10046000EFF30880EFF3098020E9F00F40F804ED86
:1004700040F804ED1EF0040F0CBF80F3088880F3F1
:10048000098800B504F00CFB5DF804EB4EF0040E97
:1004900070470000BC000024B4000024B800002411
:1004A00004ED00E020ED00E008ED00E010B5431C95
:1004B00002E010F8011B71B18107FAD14FF001324F
:1004C00002C88C1A8C4314EAC211F9D0C01A0A0669
:1004D00003D0C01E10BDC01A10BD0A0401D0801E7A
:1004E00010BD0902FCD0401E10BD40EA010370B5EA
:1004F0009B072ED14FF00136042A2AD308C810C911
:100500009D1B9D43121F15EAC61517D0D8B2E1B244
:10051000401A50EA056110D198B2A1B2401A50EACF
:1005200005410AD123F07F4024F07F41401A50EA70
:10053000052102D1180EA0EB146070BDA342DBD0E0
:1005400018BA21BA884201D9012070BD4FF0FF309E
:1005500070BD0AB9002070BD10F8013B11F8014BC5
:1005600063B1A3420AD1521E08D010F8013B11F822
:10057000014B1BB1A34201D1521EEDD1181B70BD1E
:10058000421E12F8013F002BFBD111F8013B002B5A
:1005900002F8013BF9D1704710B5203AC0F00B804A
:1005A000B1E81850203AA0E81850B1E81850A0E877
:1005B0001850BFF4F5AF5FEA027C24BFB1E81850D1
:1005C000A0E8185044BF18C918C0BDE810405FEA41
:1005D000827C24BF51F8043B40F8043B08BF7047BD
:1005E000D20728BF31F8023B48BF11F8012B28BFC2
:1005F00020F8023B48BF00F8012B70474FF0000283
:100600000429C0F0128010F0030C00F01B80CCF124
:10061000040CBCF1020F18BF00F8012BA8BF20F892
:10062000022BA1EB0C0100F00DB85FEAC17C24BFE6
:1006300000F8012B00F8012B48BF00F8012B704790
:100640004FF0000200B5134694469646203922BF6B
:10065000A0E80C50A0E80C50B1F12001BFF4F7AFB6
:10066000090728BFA0E80C5048BF0CC05DF804EB98
:10067000890028BF40F8042B08BF704748BF20F806
:10068000022B11F0804F18BF00F8012B704710B5F6
:10069000044610F0030F08BF11F0030F40F015805F
:1006A0004FF0013E121FC0F20E8051F8043BA3EB45
:1006B0000E0C2CEA030C1CEACE1C08BF40F8043BCD
:1006C000F0D0A1F1040102F10402521E08DB11F87E
:1006D000013B002B00F8013BF7D11146FFF78EFFDD
:1006E000204610BD704770477047754600F02CF8E3
:1006F000AE4605006946534620F00700854618B00F
:1007000020B5FFF727FEBDE820404FF000064FF070
:1007100000074FF000084FF0000B21F00701AC4636
:10072000ACE8C009ACE8C009ACE8C009ACE8C00955
:100730008D46704710B50446AFF300802046BDE8F3
:100740001040FFF7F2BD00000048704758510024E8
:1007500001491820ABBEFEE726000200704710B525
:1007600005F0C0FB002010BD7CB506460020054604
:1007700004460090019008E069463046ADF8044018
:1007800000F01CFB00B10125641C306BA042F3D8C3
:1007900028467CBDFEE7000010B504F0B3FA104C0B
:1007A0000021204600F0D6FE40B12068C0F30010C2
:1007B00020B1002005F070FC1020A0600021204630
:1007C00000F0D0FE40B12068C0F3401020B10020FE
:1007D00005F03AFC2020A060BDE8104004F0A0BA6B
:1007E0000000024010B504F08DFA094C01212046AA
:1007F00000F0B8FE40B12068C0F3C02020B1002056
:1008000005F0A8FCE014A060BDE8104004F088BA30
:100810000000024010B504F075FA104C0221204689
:1008200000F098FE40B12068C0F3001020B1002015
:1008300005F032FC1020A0600221204600F092FE5C
:1008400040B12068C0F3401020B1012005F0FCFB4E
:100850002020A060BDE8104004F062BA0000024011
:1008600010B504F04FFA094C0221204600F07AFE40
:1008700040B12068C0F3C02020B1012005F06AFC1F
:10088000E014A060BDE8104004F04ABA0000024045
:10089000704772B6FEE74B680A6842EA03220B898A
:1008A000097B1B0443EA01611143C268C160002057
:1008B00070474B680A6842EA03220B89097B1B04D4
:1008C00043EA0161114382688160002070470000A3
:1008D0008B684A68D1F810C01A43CB6843EA0C030E
:1008E0001A434B69896942EA432242EA413102686C
:1008F000034B1A40114341F008010160002070478A
:100900008901F0FF70B40C68D1F824C00B6A002C88
:10091000CA691CD01A43036823F4F8434CEA030362
:100920001A4302608B684A68D1F810C01A43CB683A
:1009300043EA0C031A434B6989691A430A43416825
:100940006FF30E011143416070BC002070478D6849
:100950004C680E692C43CD6835432C434D69896939
:100960002C4321431143194341EA0C0201686FF300
:100970000E0111430160E7E742696FF34D0242EA5D
:1009800041014161002070474B680A681A438B6837
:10099000C9685B1E5B0143EA41210A4301696FF3A9
:1009A000150111430161002070474DF8044DCB68DB
:1009B000D1F814C05B1E002AACF1010C24D01A033C
:1009C000836842EA0C5223F4704323F470031A4301
:1009D00082604B680A685B1E521E42EA03128B68F3
:1009E0005B1E42EA03220B8A097E5B1E491E42EA15
:1009F000034242EA0161C26802F070421143C160E1
:100A00005DF8044B002070474C680A68641E521E53
:100A100042EA04128C68641E42EA042242EA03326B
:100A20000B8A097E5B1E491E42EA034242EA0C52CF
:100A300042EA0161826802F0704211438160DFE79F
:100A40002DE9F04186B014216846FFF7F9FD2648EC
:100A50000168002944D1012101602448016821F086
:100A60000301016021488830016841F48051016030
:100A7000006802240025694600F480500590032692
:100A800048F237300C278DE8F100194800F03AF8A9
:100A90004CF27370DFF85C808DE8F10069464046E7
:100AA00000F030F84FF6837069468DE8F100124887
:100AB00000F028F84FF63F0069468DE8F1000F4836
:100AC00000F020F80D2069468DE8F1000C4800F098
:100AD00019F8F00269468DE87100404600F012F8FE
:100AE00006B0BDE8F0810000140000244C44025818
:100AF00000180258000C0258001002580014025846
:100B0000000802582DE9F84F0022DFF8E4C10B6815
:100B1000002B7DD0DFF8DCB14FF0B04A4FF0010E72
:100B20004FF003084FF00F090B680EFA02F52B4047
:100B3000002B6ED00C7904F00304012C01D0022CA0
:100B400011D18668540008FA04F7BE43CF6807FA4B
:100B500004F4344384604468AC430D79C5F3001554
:100B600095402C4344604C6838EA040409D0C568B9
:100B7000540008FA04F6B5438E6806FA04F42C43D0
:100B8000C4600C7904F00304022C0DD1D40800EBEE
:100B900084052E6A5407E40E09FA04F7BE430F6970
:100BA00007FA04F434432C620568540008FA04F68A
:100BB000B5430E7906F0030606FA04F42C430460EC
:100BC0004C6814F4403F78D0DBF8004044F0020455
:100BD000CBF80040DBF8004004F00204009422F05F
:100BE000030404F1B046D6F8084495072D0F09FA1E
:100BF00005F724EA0707A0F1B044B4F5003463D048
:100C0000A0F1B044B4F5013460D0A0F1B04401E0EB
:100C100058E052E0B4F502345AD0A0F1B044B4F533
:100C2000033457D0A0F1B044B4F5043454D0A0F14B
:100C3000B044B4F5053451D0A0F1B044B4F5063455
:100C40004ED0A0F1B044B4F507344BD0A0F1B0447D
:100C5000B4F5083448D0A0F1B044B4F5093445D017
:100C60000A24AC403C43C6F80844DAF800409C43F0
:100C70004D6815F4801F00D01C43CAF80040DAF814
:100C800004409C434D6815F4001F00D01C43CAF873
:100C90000440DCF804409C434D6815F4003F00D04C
:100CA0001C43CCF80440DCF800409C434D6815F42C
:100CB000803F00D01C43CCF80040521C0B68D3404E
:100CC0007FF432AFBDE8F88F0024CAE70124C8E7FB
:100CD0000224C6E70324C4E70424C2E70524C0E7CE
:100CE0000624BEE70724BCE70824BAE70924B8E7CE
:100CF00080000058F444025810B5032000F046F973
:100D000000F056F90F4A1168C1F303230E49CB5C7A
:100D100003F01F03D840126802F00F02895C0B4AEF
:100D200001F01F0120FA01F111600949086000205B
:100D300000F010F808B1012010BD00F031F80020DB
:100D400010BD000018440258486400082C0000241C
:100D50002800002470B504460F4D2A78002A0CD0D4
:100D60004FF47A700D49B0FBF2F00968B1FBF0F076
:100D700000F074FA18B1012070BD012070BD102C74
:100D800007D200222146501E00F0CAF86C600020F5
:100D900070BD012070BD00001C000024280000244C
:100DA000054808B5016841F002010160006800F0E3
:100DB0000200009008BD0000F444025870B490F89E
:100DC0002120022A06D090F82120012A05D070BCEB
:100DD0000120704770BC0220704790F82020012A43
:100DE0003ED04FF0010C80F820C0022280F8212074
:100DF0001D4C60222270BFF34F8F4B88856B8A8811
:100E000003FB0522C36A0D8802FB0353174A1370C4
:100E1000BFF34F8F4D88866B8B8805FB0633C56A01
:100E20000E8803FB05631B0A1370BFF34F8F4D88B9
:100E3000866B8B88098805FB0633C56A03FB0511A1
:100E4000090C1170BFF34F8FD0212170BFF34F8F6A
:100E500080F821C0002180F82010002070BC70476D
:100E600070BC02207047000000000180000002807A
:100E700070B504460E461546002C03D094F82100A8
:100E800010B107E0012070BD002084F8200020464A
:100E900000F020F82068211DFFF71AFD6268314636
:100EA0002068FFF706FD626829462068FFF7F3FC1B
:100EB0002068016841F0040101600548016841F0C3
:100EC00000410160012084F82100002070BD000075
:100ED00000400052FFF7B4BD90F82110022905D060
:100EE00090F82110012903D001207047022070479B
:100EF00090F8201001290FD0012180F82010022243
:100F000080F82120054BFF221A7080F82110002163
:100F100080F82010002070470220704700000180F8
:100F20004DF8044D184B1B68C3F30223C3F1070CA3
:100F3000BCF1040F01D94FF0040C1C1D072C01D289
:100F4000002300E0DB1E012404FA0CFCACF1010CD0
:100F50000CEA0101994004FA03F35B1E1A401143A5
:100F6000002807DB00F1E020090180F800145DF89B
:100F7000044B704700F00F0000F1E020090180F8F9
:100F8000141D5DF8044B70470CED00E000F0070005
:100F9000064A11684FF6FF03194041EA002040F06D
:100FA000FD7040F080601060704700000CED00E0C4
:100FB0004DF8044D69480068DFF8A4C1694B10F092
:100FC00038014ED008294FEA2C1047D0102959D0AB
:100FD000182943D16448016801F003010068C0F397
:100FE0000510624A126802F00102614C2468C4F3E1
:100FF000CC0414FB02F200EE102AB8EE400A0028DE
:101000007BD0DFED5C0A5C4AB7EE001AA9B39FED16
:101010005B2A012974D0022971D001EE900A106870
:10102000F8EE611AC2EE212AC0F3080001EE900A20
:10103000F8EE611A40EE201A31EE810A22EE800AA3
:101040001068C0F34620401C00EE900AF8EE600ADB
:1010500080EE201ABCEEC10A10EE100A5DF8044BB7
:101060007047186810F0200F08D018685DF8044B1E
:10107000C0F3C1002CFA00F0704707E05DF8044BA4
:10108000604670473E485DF8044B7047196811F0A0
:10109000200F1CD01968C1F3C1012CFA01F101EE37
:1010A000901AF8EE612A01EE900A1068F8EE611AC3
:1010B00082EEA12AC0F3080001EE900AF8EE611A50
:1010C00040EE201A31EE810A22EE000AB8E701EE66
:1010D000900ADFED2C2A1068F8EE611A82EEA12A40
:1010E000C0F3080001EE900AF8EE611A40EE201AF3
:1010F00031EE810A22EE000AA2E72BE000E013E0C5
:1011000001EE900A1068F8EE611AC2EE212AC0F3CF
:10111000080001EE900AF8EE611A40EE201A31EE56
:10112000810A22EE800A8BE701EE900ADFED162A93
:101130001068F8EE611A82EEA12AC0F3080001EEF1
:10114000900AF8EE611A40EE201A31EE810A22EE82
:10115000000A75E75DF8044B002070471044025800
:101160000090D00300440258284402582C440258EE
:101170003444025800000039304402580024744AB4
:1011800040787D010024744C20BCBE4B70B50446F1
:101190000D46002C03D094F82C0010B107E001207C
:1011A00070BD002084F82D00204600F019F80220C0
:1011B00084F82C002068211DFFF7A4FB62682946F3
:1011C0002068FFF7F2FB0548016841F0004101602B
:1011D000012084F82C00002070BD00000040005267
:1011E000FFF72EBC10B5044694F82C00022805D059
:1011F00094F82C00012803D0012010BD022010BD5E
:10120000022084F82C002068FFF7B6FB012084F848
:101210002C00002010BD70B504460D4694F82C003B
:10122000022805D0012805D0052803D0012070BD73
:10123000022070BD022084F82C0020682946FFF7A8
:10124000A3FB2868022803D0012084F82C0002E0C8
:10125000052084F82C00002070BD0000401EB0F175
:10126000807F01D3012070474FF0E0214861F020DA
:10127000034A107000208861072008610020704731
:1012800023ED00E0044908B50A6802430A600968D2
:101290000140009108BD0000E0440258044908B52F
:1012A0000A6802430A6009680140009108BD000015
:1012B000E0440258044908B50A6802430A60096814
:1012C0000140009108BD0000E0440258044908B5FF
:1012D0000A6802430A6009680140009108BD0000E5
:1012E000F044025830B40023DFF8B4C16D4C11F55E
:1012F000803F58D06C4A525C855825F001058550D6
:10130000A04201D1002967D0604501D1002965D0F4
:10131000A04201D1012963D0604501D1012961D0EA
:10132000A04201D102295FD0604501D102295DD0E0
:10133000A04201D103295BD0604501D1032959D0D6
:10134000A04201D1042957D0604501D1042955D0CC
:10135000A04201D1052953D0604501D1052951D0C2
:10136000A04201D106294FD0604501D106294DD0B8
:10137000A04201D107294BD04C4A4FF0000CC2F8D3
:1013800000C0C2F804C0C2F808C0C2F80CC0C2F85D
:1013900010C04FF0210CC2F814C08A00A04239D10D
:1013A0004FF0000C38E04249A04208D1086840F0F4
:1013B00001000860086820F0010008605AE06045FC
:1013C00008D1086840F002000860086820F00200B8
:1013D00008604FE001234DE0364ACEE7364ACCE7BD
:1013E000364ACAE7364AC8E7364AC6E7364AC4E745
:1013F000364AC2E7364AC0E7364ABEE7364ABCE755
:10140000364ABAE7364AB8E7364AB6E7364AB4E764
:10141000364AB2E74FF0080C02EB8C0C0CF1804C12
:101420000CF5003CDCF800C82CF0FF0402D14FF0B2
:10143000000C01E04FF0080C02EB8C0202F180423C
:1014400002F50032C2F800483F25B1B101294FF43E
:10145000746C14D02C04022914D003294FF0746248
:1014600012D0042912D0052912D0062913D0072939
:1014700013D0012330BC184670478560FAE7C0F8E6
:1014800008C0F7E78460F5E78260F3E7C560F1E73D
:10149000C0F80CC0EEE7C460ECE7C260EAE7000009
:1014A000000402400000024010640008B80402403A
:1014B00080440258100002401004024028000240FC
:1014C000280402404000024040040240580002400C
:1014D000580402407000024070040240880002403C
:1014E00088040240A0000240A0040240B80002406C
:1014F000034A1430515C0A5822F004020A50704723
:10150000E8630008034A1430515C0A5822F00402D0
:101510000A507047F0630008034A1430515C0A58BF
:1015200042F004020A507047F0630008034A515C1D
:10153000425842F01002425070470000E863000831
:10154000034A515C425842F0010242507047000089
:10155000E8630008024A515C4058C0F3C00070477D
:10156000F8630008024A515C4058C0F3001070470D
:10157000F8630008044B001D595C0B586FF30F0310
:1015800013430B5070470000E8630008034B595C9D
:10159000435823F0C003134343507047E8630008E7
:1015A000034B595C435823F0C00313434350704727
:1015B000F0630008044B1430595C0B5823F003030C
:1015C00013430B5070470000F0630008034B595C55
:1015D000435823F0C073134343507047F06300082F
:1015E000034B595C435823F48063134343507047C3
:1015F000E8630008034B595C435823F480631343AA
:1016000043507047F0630008034B595C435823F480
:10161000C043134343507047E8630008034B595CD1
:10162000435823F4C043134343507047F06300080A
:10163000034B595C435823F4907313434350704752
:10164000E8630008034B595C435823F49073134339
:1016500043507047F0630008034B595C435823F430
:10166000C003134343507047F0630008034B595CB9
:10167000435823F40073134343507047E863000852
:10168000034B595C435823F4007313434350704792
:10169000F06300080E4B984203D100BF4FF00000EA
:1016A00001E04FF00800084403EB8000D0F8000888
:1016B00020F0FF0040EA020002D14FF0000201E0FA
:1016C0004FF00802114403EB8101C1F80008704794
:1016D000000002400E4B984203D100BF4FF00000C3
:1016E00001E04FF00800084403EB8000D0F8000848
:1016F00020F0FF0040EA020002D14FF0000201E0BA
:101700004FF00802114403EB8101C1F80008704753
:1017100000000240034B595C435823F4C053134369
:1017200043507047E8630008034B595C435823F467
:10173000C053134343507047F0630008034B595C98
:10174000435823F44033134343507047E863000881
:10175000034B595C435823F44033134343507047C1
:10176000F06300082DE9F0010A6892FAA2F3B3FAD7
:1017700083F3DA4066D001240A6804FA03FC02EA23
:101780000C02002A5AD0D1F804C0BCF1010F02D0DB
:10179000BCF1020F18D18D68866802FB02FC0CEBCD
:1017A0004C070CFB05FCBE4346EA0C0CC0F808C015
:1017B000D1F800C0CD68466826EA0C060CFB05FC93
:1017C00046EA0C0CC0F804C00E69C76802FB02FCB4
:1017D0000CFB06F60CEB4C05AF433E43C6604E686F
:1017E000022E23D1B2F5807F0ED24E69076A0CFB20
:1017F00002F808FB02F2C2EB021802FB06F227EA2B
:1018000008073A43026211E04E69120AD0F82480B8
:1018100002FB02F707FB02F707FB02F2C2EB02171B
:1018200002FB06F228EA07073A4342624A68066862
:101830000CFB02F226EA05052A4302605B1C0A68DB
:10184000DA4099D1BDE8F00100207047006981437A
:1018500001D000207047012070470000DDED000A34
:1018600000EE100A9FED0F2AB8EE401A00EE101A93
:10187000B8EE400AC1EE001A00EE102AB8EE401A87
:1018800000EE103AB8EE400A00EE021A21EE810A8C
:10189000B8EE601AC0EE010ABCEEE00A10EE100AC3
:1018A000704700000000003900201449096801F069
:1018B0004051134A00290CD0B1F1805F16D0B1F12C
:1018C000005F05D11168C1F34041002900D00D48E7
:1018D00070471168C1F380010029F9D0106800F049
:1018E00018000949C00821FA00F070471168C1F3D7
:1018F00000210029F9D00548704700004C440258E7
:101900000044025840787D010090D00300093D005A
:101910004DF804ED83B000201D49096801F0030172
:1019200000290CD01B4A01291AD0022924D00329EE
:1019300002D10807FFF7B8FF03B05DF804FB00F021
:1019400003FF1549096801F47061144A090A515CE2
:1019500001F01F01C84000F0C9FE03B05DF804FBB0
:101960001168C1F340610029F7D0684600F018F80B
:10197000019803B05DF804FB1168C1F3C061002950
:10198000F7D0684600F092F8029803B05DF804FBC7
:101990004C4402580044025818440258006400089D
:1019A0002DE9F8470446002500273A4A106800F060
:1019B00003003949002804D001280ED0022817D18D
:1019C00011E00868C0F3800090B1086800F01800CA
:1019D0003249C00821FA00F50AE00868C0F3002087
:1019E00030B12F4D04E00868C0F3404000B12D4DE8
:1019F000002020606060A0601068C0F305182A4EC7
:101A00003068C0F3080000F1010AA6F10409D9F812
:101A1000000000F0010018B1301D0068C0F3CC07D1
:101A2000B8F1000F33D0D9F80000C0F3004058B12E
:101A30003068C0F34620401C3B4652464146009069
:101A40002846FFF70BFF2060D9F80000C0F34040A4
:101A500058B13068C0F30640401C3B4652464146F0
:101A600000902846FFF7FAFE6060D9F80000C0F346
:101A7000804000280BD03068C0F30660401C3B4615
:101A80005246414600902846FFF7E8FEA060BDE8B8
:101A9000F887000028440258004402580090D00300
:101AA00000093D0040787D01304402582DE9F84797
:101AB0000446002500273A4A106800F0030039491F
:101AC000002804D001280ED0022817D111E00868A0
:101AD000C0F3800090B1086800F018003249C008D7
:101AE00021FA00F50AE00868C0F3002030B12F4D5C
:101AF00004E00868C0F3404000B12D4D0020206094
:101B00006060A0601068C0F305382A4E3068C0F3EA
:101B1000080000F1010ADFF8A090D9F80000C0F336
:101B2000001018B1301D0068C0F3CC07B8F1000FE9
:101B300033D0D9F80000C0F3C04058B13068C0F3CA
:101B40004620401C3B465246414600902846FFF73F
:101B500085FE2060D9F80000C0F3005058B130680D
:101B6000C0F30640401C3B46524641460090284682
:101B7000FFF774FE6060D9F80000C0F34050002801
:101B80000BD03068C0F30660401C3B4652464146CD
:101B900000902846FFF762FEA060BDE8F8870000CD
:101BA00028440258004402580090D00300093D0028
:101BB00040787D01384402582C4402582DE9F847FA
:101BC0000446002500273B4A106800F003003A490C
:101BD000002804D001280ED0022817D111E008688F
:101BE000C0F3800090B1086800F018003349C008C5
:101BF00021FA00F50AE00868C0F3002030B1304D4A
:101C000004E00868C0F3404000B12E4D0020206081
:101C10006060A0601068C0F305582B4E3068C0F3B8
:101C2000080000F1010ADFF8A490D9F80000C0F321
:101C3000002018B1301D0068C0F3CC07B8F1000FC8
:101C400035D0002D33D0D9F80000C0F3805058B102
:101C50003068C0F34620401C3B4652464146009047
:101C60002846FFF7FBFD2060D9F80000C0F3C05004
:101C700058B13068C0F30640401C3B4652464146CE
:101C800000902846FFF7EAFD6060D9F80000C0F335
:101C9000006000280BD03068C0F30660401C3B4653
:101CA0005246414600902846FFF7D8FDA060BDE8A7
:101CB000F887000028440258004402580090D003DE
:101CC00000093D0040787D01404402582C440258F0
:101CD00030B583B0014600204D4BCAB21A444FEADA
:101CE000116C1368C1F304220CFA02FC03EA0C0322
:101CF00023FA02F241EA0241464BDFF81CC1CA1A3C
:101D0000994275D02FDC454B9942A1EB03020CD0D0
:101D100017DC434CA1F1E061424D083957D0B1F5D1
:101D2000407F44D0B1F5803F09D1DCF80010C1F309
:101D3000C061002903D06846FFF7B8FE019803B0E0
:101D400030BDB2F57D4F02D0B2F5803FF7D1DCF85F
:101D50000010C1F340710029F1D06846FFF72EFF53
:101D6000019803B030BD304BD11A9A4206D00EDC38
:101D7000B2F5407F3CD0B2F5803FF2D1DCF80010E4
:101D8000C1F300210029ECD0284803B030BDB1F5E3
:101D90007D4F02D0B1F5803FF7D125490968C1F3E5
:101DA00040010029F1D003B04FF4004030BD00F0F5
:101DB000CBFC216801F47061090A695C01F01F0124
:101DC000C84000F093FC00F0AFFC03B030BD00F061
:101DD000BBFC216801F47061090A695C01F01F0114
:101DE000C84000F083FC00F08FFC03B030BDFFE77B
:101DF000DCF80010C1F380010029F6D0DCF8000007
:101E000000F018000B4903B0C00821FA00F030BD03
:101E10004C44025808000307004402580803010715
:101E200018440258006400080003010000093D0046
:101E3000704402580090D00303490A6822F00F0250
:101E400002430A6070470000184402580749030E15
:101E500010B551FA80F1C0F30422C0F307440868BA
:101E60009340944098432043086010BD4C4402586E
:101E70000749030E10B551FA80F1C0F30422C0F3F4
:101E8000074408689340944098432043086010BD7D
:101E90004C4402584DF8044D0122036803F001033D
:101EA000002B4AD10B6A8A69D0F808C01A438B68A4
:101EB000244C0CEA040C43EA0C031A438260D1F868
:101EC00014C04B68C26802F08052BCF1806F0BD125
:101ED00012B9B3F5800F03D0B2F1805F04D11BB902
:101EE000026842F480520260CB684A69D1F81CC093
:101EF0001A430B6943EA0C031A434B681A430B68F5
:101F000003F4C0231A43C36823F0E37323F0185388
:101F10001A43C26002680B8822F4006203F4006373
:101F20001A4302600A6AB2F5800F01D1496A01645E
:101F3000016D21F00101016500225DF8044B10469E
:101F400070470000E0FFBF8F014908607047000044
:101F50002800002409B12430704728307047000061
:101F600070B504460D4601260022206800F00100ED
:101F700000287CD12969A868EB690843696919437D
:101F8000084321684B4B194008432060E8686168AA
:101F900021F4405108436060A869A16821F44071B0
:101FA0000843A060444BA4F18040B0F5883024D0B1
:101FB0004249A4F18040B0F5884023D0A4F180408C
:101FC000B0F5904023D0A4F18040B0F5984023D0E4
:101FD000A4F18040B0F5A04023D0A4F18040B0F53A
:101FE0008A3023D0A4F18040B0F5F04023D0A4F192
:101FF0008040B0F5F84023D026E01846FFF768FE91
:10200000024621E00846FFF763FE02461CE0084650
:10201000FFF75EFE024617E00846FFF759FE02464C
:1020200012E00846FFF754FE02460DE01846FFF79F
:102030004FFE024608E00846FFF74AFE024603E06C
:102040000846FFF745FE0246C2B16868B0B10026F7
:10205000EB6929680B2911D8DFF864C0B3F5004F8C
:1020600015D0C9B25CF82110B2FBF1F100E00CE030
:1020700001EB5001B1FBF0F080B2E0602888E16A2A
:1020800080B221F00F010843E062304670BDC9B252
:102090005CF82110B2FBF1F1490001EB5001B1FBFA
:1020A000F0F080B24FF6F0710140C0F342000843F7
:1020B000E060E3E7F369FFEF0803000708000007AB
:1020C0001864000810F1080050E8002F22F0606248
:1020D00042EA416240E80023002BF5D1704700003E
:1020E00010F1080050E8002F61F35F7240E8002310
:1020F000002BF7D1704781B04FF0E0210A690092C0
:10210000B0F1FF3F00D0401C002806D00A6912F44D
:10211000803F00D0401E0028F8D101B07047000079
:102120001F4808B5016841F001010160006800F036
:102130000100009000F0FEFD0022114600F086FA3A
:1021400001460B2000F00FFE0B2000F0D9FD00F03F
:10215000F1FD0022114600F079FA01460C2000F052
:1021600002FE0C2000F0CCFD00F0E4FD0022114640
:1021700000F06CFA01460D2000F0F5FD0D2000F096
:10218000BFFD00F0D7FD0022114600F05FFA0146C6
:102190000E2000F0E8FDBDE808400E2000F0B0BDC4
:1021A000D8440258F0B58FB000241C2108A8FEF7CF
:1021B00047FA2E4802254FF480762B4AFC21C0E9CD
:1021C0000254046144618461C46144628462C462F3
:1021D000046344638463C0E9002680F83C4004AA99
:1021E000009101910291039104910591069107914B
:1021F0006946FEF73DFE08B1FEF74BFB1B48082180
:10220000194A10234030C0324027C0E900248460BE
:102210000C300A024FF4805C80E88A00C0E9036455
:1022200014304FF4005E052380E804500BA8089595
:102230000424CDE9091380E832000C4808A90E9562
:102240004030FEF7A3FF08B1FEF723FB0748FEF777
:1022500043FE042000F0CCF90448FEF785FA00F0B4
:10226000A9FA0FB0F0BD0000804000520C1000240D
:1022700000B587B018216846FEF7E2F94020FFF765
:1022800001F80820FEF7FEFF1020FEF7FBFF0120FB
:10229000FEF7F8FF0420FEF7F5FF0220FEF7F2FF3D
:1022A0002020FEF7EFFF8020FEF7ECFF08484FF4F8
:1022B000800181610021402300930122CDE90121A9
:1022C000039104916946FFF74DFA07B000BD000085
:1022D0000018025810B590B028216846FEF7B0F9F2
:1022E00018210AA8FEF7ACF92948FFF7AFFD4FF413
:1022F0000050FEF7EBFF1020FEF7D0FF0024022075
:1023000064210A910522CDE90B0422480AA9CDE9EE
:102310000E420D94FFF726FA1F480068C0F3022012
:10232000011D072901D2002000E0C01E1B4A04FA4B
:1023300000F1080182F8000418494FF480104C396C
:10234000C1F80001800003210201CDE90040CDE980
:10235000021483010894CDE90442CDE906340994BE
:1023600069460F4C2046FFF795FDE06820F46010A9
:10237000E060E06840F08040E060206840F00100EC
:102380002060206840F40070206010B010BD000094
:1023900004100007001002580CED00E054E000E0CB
:1023A0000034014010B590B028216846FEF748F986
:1023B00018210AA8FEF744F91A48FFF747FD4FF421
:1023C0008010FEF783FF2020FEF768FF0AAB002491
:1023D00002214FF4607083E81300052212480AA915
:1023E0000D94CDE90E42FFF7BDF94FF480000321B3
:1023F0000201CDE90040CDE90214CDE90442069482
:102400006946079408940994084C2046FFF742FD5A
:10241000E06820F46010E060E06840F08040E06038
:1024200010B010BD04100007001402580050014005
:1024300070B590B020216846FEF702F9182108A86F
:10244000FEF7FEF86448FFF713FD6448016841F4A5
:1024500000210160006800F400200E900120FEF7CA
:1024600029FF08AB022200244FF4C051062083E864
:102470001600CDE90C405A4808A90B94FFF772F9F1
:10248000584D3F2202212846FFF724F90022284612
:102490000221FFF785F8002228460221FFF758F9AC
:1024A000002228460221FFF7CDF80022284602210B
:1024B000FFF7E6F82E15284602213246FFF79AF874
:1024C000002228460221FFF72FF900222846022188
:1024D000FFF7A4F802212846FFF71EF8032228463A
:1024E0000221FFF767F8002228460221FFF76EF865
:1024F000002228460221FFF7AFF840222846032198
:10250000FFF7E8F8402228460321FFF749F80022A8
:1025100028460321FFF71CF9002228460321FFF774
:1025200091F8002228460321FFF7AAF8032132463A
:102530002846FFF75FF8002228460321FFF7F4F84A
:10254000002228460321FFF769F803212846FEF7F9
:10255000D9FF2548006800221146C0F3022000F090
:102560008EF80146342000F00FFC342000F0D5FB3B
:102570004FF4E13002940C2103940794CDE900401C
:10258000CDE9044106946946184C2046FFF7E8FC63
:10259000206820F00050206000212046FFF7A0FDB9
:1025A00000212046FFF78EFD606820F490406060B7
:1025B000A06820F02A00A060206840F001002060A0
:1025C000E069C0F340500028FAD0E069C0F38050C1
:1025D0000028F5D010B070BD08000007E84402588C
:1025E00000000258000002400CED00E0004C0040EA
:1025F00070B5074E0022074CEF2501234FF0004134
:102600003570237008700A700A700A70104670BD29
:102610000000018000000280FEE730B500F00703F3
:10262000C3F10704042C00D90424181D072801D283
:10263000002300E0DB1E012505FA04F09D40401E4A
:1026400008406D1E98401540284330BD30B500F05D
:102650000703C3F10704042C00D90424181D07281C
:1026600001D2002300E0DB1E012505FA04F09D40A5
:10267000401E08406D1E98401540284330BD30B5BF
:1026800000F00703C3F10704042C00D90424181D2B
:10269000072801D2002300E0DB1E012505FA04F023
:1026A0009D40401E08406D1E98401540284330BD97
:1026B00010B5084C2088401C208007A002F076FB53
:1026C000218807A002F072FB20881428F2D1002094
:1026D000208010BD000000244C4544204F4E0A00CD
:1026E000636F756E74203D2025640A0004490968F3
:1026F00001F00F01034A515C01F01F01C84070470F
:1027000018440258006400080549096801F0700186
:10271000044A0909515C01F01F01C84070470000DC
:102720001C440258006400080549096801F4E0618E
:10273000044A090A515C01F01F01C84070470000BB
:102740001C440258006400084DF804ED83B00020DA
:102750001249096801F0380100290CD0082915D068
:10276000102917D0182903D16846FFF719F90098E6
:1027700003B05DF804FB0A48006800F0180009493E
:10278000C00821FA00F003B05DF804FB064803B06E
:102790005DF804FB054803B05DF804FB10440258E3
:1027A000004402580090D00300093D0040787D01AC
:1027B000704700002DE9F0471E4C102600274FF609
:1027C000FF790125214601F150004A46C4E900562F
:1027D000C4E90257FEF71FFD0120FFF78CFC022021
:1027E0002146C4E90006C4E9025701F150004A46F7
:1027F000FEF711FD03214FF00408E7604A4684E824
:102800004201214601F15000FEF705FD4FF4087129
:102810004A46C4E902512146C4E9008601F150004C
:10282000FEF7F9FC04F1500040F2F921BDE8F04751
:10283000FEF7D8BCFC0F0024704710B502F062FA16
:1028400003F02EF8BDE8104002F06ABA554810B502
:10285000016821F00F0141F002010160016801F0FF
:102860000F010229FAD15048016821F0070141F017
:10287000020101604C480C30016841F440410160A4
:102880000168C1F340310029FAD04848016841F499
:10289000803101600168C1F340410029FAD0434A08
:1028A0002832116821F0030141F002011160111D6D
:1028B0000B6843F480330B600B6843F480230B6098
:1028C0000B6823F00C0343F008030B600B6823F044
:1028D00002030B60116821F47C7141F0500111601A
:1028E000324930310A686FF3080242F09F020A60F1
:1028F0000A6822F47E4242F400720A600A6822F4F6
:10290000FE0242F480320A600A6822F0FE4242F07F
:1029100080720A60016841F0807101600168C1F352
:1029200040610029FAD00820FFF786FA1F481030CE
:10293000016821F0070141F003010160016801F025
:1029400038011829FAD1194C1834206820F4706025
:1029500020600820FFF770FA201D016821F0700147
:1029600041F040010160016821F4E06141F48061BF
:102970000160206820F0700040F0400020600B48AB
:102980002030016821F0700141F0400101600848E9
:10299000FFF7DAFA0020FEF7DDF9002801D072B661
:1029A000FEE710BD002000520C48025800440258B7
:1029B0000084D7174DF8044D64480068644BDFF875
:1029C00094C110F038001FD0082823D0102823D03D
:1029D000182823D01868C0F3C1002CFA00F05E4A12
:1029E00011685E4BC1F30321595CC840116801F0C6
:1029F0000F01595C01F01F0120FA01F258494A60A9
:102A000008605DF8044B70471868C0F3C1002CFAE9
:102A100000F0E4E75348E2E75348E0E75348016831
:102A200001F003010068C0F30510514A126802F07A
:102A30000102504C2468C4F3CC0414FB02F200EEF3
:102A4000102AB8EE400A00287ED0DFED4B0A4B4A30
:102A5000B7EE001A71B3012949D002295DD0196877
:102A6000C1F3C1012CFA01F101EE901AF8EE612ACE
:102A700001EE900A1068F8EE611A82EEA12AC0F306
:102A8000080001EE900AF8EE611A40EE201A31EECD
:102A9000810A22EE000A1068C0F34620401C00EEB6
:102AA000900AF8EE600A80EE201ABCEEC10A10EE21
:102AB000100A94E71968C1F3C1012CFA01F101EE83
:102AC000901AF8EE612A01EE900A1068F8EE611A89
:102AD00082EEA12AC0F3080001EE900AF8EE611A16
:102AE00040EE201A31EE810A22EE000AD3E701EE11
:102AF000900ADFED232A1068F8EE611A82EEA12A0F
:102B0000C0F3080001EE900AF8EE611A40EE201AB8
:102B100031EE810A22EE000ABDE701EE900ADFEDF8
:102B2000192A1068F8EE611A82EEA12AC0F3080093
:102B300001EE900AF8EE611A40EE201A31EE810A99
:102B400022EE000AA7E7FFE7002048E710440258FA
:102B5000004402580090D00318440258486400080A
:102B60002800002400093D0040787D0128440258D7
:102B70002C440258344402580000003930440258B2
:102B80000024744A20BCBE4B2B48016841F47001FC
:102B900001602A4A106800F00F00072805D210686B
:102BA00020F00F0040F0070010602549086840F051
:102BB00001000860234B002018600B68DFF888C014
:102BC00003EA0C030B60136803F00F03072B05D90E
:102BD000136823F00F0343F0070313601B4A1060D0
:102BE000121D1060121D10601A4B194A1A601B1D2D
:102BF000194A1A601B1D194A1A601B1D18601B1DFB
:102C00001A601B1D18601B1D1A601A1D10600A68CF
:102C100022F480220A6012490860124800686FF3AB
:102C20000F00B0F1005F02D20F490120086043F2AB
:102C3000D2000E490860704788ED00E00020005285
:102C400000440258104402587FEDF6EA1844025836
:102C500000020202284402580000FF018002010124
:102C6000604402580010005C08810051004000528E
:102C70007047000010B502F045F8174CE069C0F34A
:102C80004010C0B12068C0F34010A0B1E069C0F3AB
:102C9000401068B1606AC0B2B0F1FF3F08D0C1B265
:102CA0000E4802F057FAE069C0F340100028F1D155
:102CB0000B4802F00AFB2068C0F3001040B1E06945
:102CC000C0F3001020B1002003F012FA102020629F
:102CD000BDE8104002F024B8001001402814002480
:102CE00034140024FEE7002809DB410900F01F022C
:102CF0008900012001F1E0219040C1F800017047F6
:102D0000002809DB410900F01F028900012001F1C0
:102D1000E0219040C1F800017047002809DB41091B
:102D200000F01F028900012001F1E0219040C1F86C
:102D30000001704702480068C0F30220704700009D
:102D40000CED00E0090700284FEA116104DB00F1F7
:102D5000E02080F80014704700F00F0000F1E02040
:102D600080F8141D7047090700284FEA116104DB41
:102D700000F1E02080F80014704700F00F0000F12F
:102D8000E02080F8141D7047090700284FEA116100
:102D900004DB00F1E02080F80014704700F00F0021
:102DA00000F1E02080F8141D70470000002807D0D3
:102DB0000F4910F0FF0F05D0C0B2085C401C7047EF
:102DC0000020704710F47F4F04D0C0F30720085C48
:102DD0000930704710F47F0F04D0C0F30740085C3F
:102DE0001130704701EB1060007819307047000017
:102DF00058640008F0B589B004460D461646002117
:102E000000E0491C635C202B03D0092B01D0A942B0
:102E1000F7D3C9B1204601F0C5FA0746C7B1002172
:102E200000910191029103910491059106910791FE
:102E30006A462946204601F023FB68B16946B84737
:102E4000306009B00020F0BD09B04FF0FF30F0BD98
:102E500009B04FF0FF30F0BD09B04FF0FF30F0BDCA
:102E600070B582B011469C460446089E099D069B9B
:102E7000079A04F11400406000602162C4F824C085
:102E8000A362E2622321184602F045F8E16AA06AD3
:102E9000104B0844616A021F206A01F011FFE061D3
:102EA00084F8366084F835600020A063E56325640B
:102EB000206384F83400206760672346064A214671
:102EC0000090019004F1440002F0C7FD02B0002020
:102ED00070BD000009560008FF570008DDF800C06B
:102EE0002CF0010C80F809C0C161026200218162EE
:102EF000436200EBC102143252601260491C012986
:102F0000F7DB704770B50446FDF736FA0546216FCA
:102F100009B1204688472846BDE87040FDF730BA21
:102F2000002008B58DF800009DF800000A2803D2A3
:102F30009DF80000401CF5E708BD002103E0622277
:102F4000521EFDD1491C8142F9D370472DE9F04151
:102F500015460F46064600F01BF9A02000F0EEF8DB
:102F600000F03EF94FF0FF3480B1304600F0E6F853
:102F700000F036F950B100F00BF9A12000F0DEF8B6
:102F800000F02EF910B16E1E002411E000F016F9C9
:102F90002046BDE8F08100BF00F0ACF8B4423855DF
:102FA00002D000F04FF801E000F08EF8641CA4B2EB
:102FB000AC42F1D300F002F90020EAE72DE9F0413C
:102FC0000746154600200E46044608E03819315DD4
:102FD000C0B200F008F8002803DB641CA4B2AC42C5
:102FE000F4D3BDE8F08170B50C46054600F0D0F88A
:102FF000A02000F0A3F800F0F3F898B1284600F004
:103000009DF800F0EDF890B1204600F097F800F040
:10301000E7F888B100F0D2F84FF6FF70FFF78DFFA8
:10302000002070BD00F0CAF84FF0FF3070BD00F016
:10303000C5F86FF0010070BD00F0C0F86FF002003D
:1030400070BD000070B5094CE003A0610514FFF7E6
:1030500067FF6810A061FFF763FFE803A061FFF757
:103060005FFFA561BDE87040FFF75ABF000402583A
:10307000134870B588B0016841F002010160006832
:103080000124104E032500F0020006902002029554
:103090000021CDE90004CDE9031469463046FEF76E
:1030A00061FB60026946CDE9000430460394029555
:1030B0000494FEF757FB00F081F808B070BD0000E3
:1030C000E04402580004025810B5094C4FF4007057
:1030D000A061FFF725FF4FF48070A061FFF720FF8C
:1030E0004FF08070A061BDE81040FFF719BF0000ED
:1030F000000402582DE9F0470F4E00244FF40079E8
:1031000025464FF480774FF080786006B761040E53
:10311000FFF706FF49463046FEF798FB08B1641CEE
:10312000E4B2C6F81880FFF7FBFE6D1CEDB2082D67
:10313000EBD32046BDE8F087000402582DE9F047A4
:10314000124C00254FF4807806464FF080794FF4FA
:103150000077300601D5A76102E04FF00070A06152
:10316000FFF7DEFEC4F81880FFF7DAFEC4F8189007
:10317000072D00D1A7617006060EFFF7D1FE6D1C6A
:10318000EDB2082DE5D3BDE8F08700000004025839
:1031900010B5094C4FF40070A0614010A061FFF71A
:1031A000BFFEE003A061FFF7BBFE4FF08070A0619F
:1031B000BDE81040FFF7B4BE0004025870B5074CDC
:1031C000E003A0610514FFF7ABFE6810A061FFF7F4
:1031D000A7FEA561BDE87040FFF7A2BE000402583B
:1031E0002DE9F041104E00244FF40075B561FFF752
:1031F00097FE6810B061FFF793FE4FF4FA6705E0A1
:10320000641CBC4202D90020BDE8F081294630464A
:10321000FEF71CFB0028F3D14FF08070B061FFF780
:103220007FFE0120F0E70000000402582DE9F04184
:10323000294E0F46002105463046FEF753F8292255
:1032400030460021FEF726FA002230461146FEF7EE
:103250009DF9002230461146FEF770FAB21530464D
:103260000021FEF7E5F9002230461146FEF7FEF98F
:10327000321530460021FEF7B3F9002230461146E0
:10328000FEF748FA002230461146FEF7BDF900214C
:103290003046FEF72DF911480121FEF75BFE104C78
:1032A0000D49083122785050081D21780D50002119
:1032B0003A463046FEF75EF92078C1B2305840F009
:1032C0000800705000213046FEF730F93046BDE866
:1032D000F0410021FEF734B9000002400010014027
:1032E000E8630008034902480978085880B270472B
:1032F00004000240E863000810B51DA001F056FD6F
:103300001E4C21781EA001F051FD207810F0010F15
:1033100002D021A001F04AFD207810F0020F02D067
:1033200020A001F043FD207810F0040F02D020A06F
:1033300001F03CFD207810F0080F02D020A001F031
:1033400035FD207810F0100F02D020A001F02EFDE6
:10335000207810F0800F06D01E4801681EA0BDE83E
:10336000104001F023BDBDE810401FA001F01EBDBC
:10337000627573206661756C743A0A0029ED00E08D
:103380005343425F434653525F424653523A30786A
:1033900025303258200000004942555345525220F2
:1033A000000000005052454349534552522000004E
:1033B000494D5052454349534552522000000000A8
:1033C000554E53544B4552522000000053544B4528
:1033D0005252200038ED00E05343422D3E42464118
:1033E000523A253038580A000A00000010B500F0A3
:1033F000CFFB002010BD10B500F0AEFC002010BDCA
:10340000010000B504D000F005F84968081A00BDB5
:10341000002000BD002800D08068704701F0D4B9BA
:1034200030B50025039C80E82600C160103080E89C
:103430001A0030BD01F0D6B92DE9F04115000E4655
:1034400004460DD064B15EB1FFF7DAFF002808D062
:10345000A84200D2054660692F46A8B1804713E014
:103460000020BDE8F08100BFE06816F8012B411C88
:10347000E1600270D4E90002E16802448A4200D8A7
:10348000E060A068401CA0607F1EEDD2A06900B182
:1034900080472846E5E7000070B515484FF0000565
:1034A000144C416991F8211011F0020F08D0016904
:1034B00049B14FF480722046FDF7E9F8204670BD0F
:1034C00025700C4870BD00F0D9FF20B10AA000683B
:1034D0002060257105E00AA0016821608088A08035
:1034E000A57109A10348FDF74BF8024870BD000023
:1034F000C0000024545000246D73682000000000B8
:1035000066696E73682000003E00000001F08ABA10
:103510000449496991F8212060F3410281F8212092
:1035200070470000C0000024014A106051607047DD
:10353000C000002430B583B016491748FFF7F4FFE8
:103540007821012001F010F9144D6861D8B10A20EA
:10355000019015210091124900224FF4806311A0BF
:1035600002F025F804466869002310A11A4601F00C
:103570009BFE0120FFF7CCFF14B1204602F008F9B2
:1035800003B0002030BD0BA001F010FC03B04FF0E1
:10359000FF3030BDDC6800081C680008C000002453
:1035A000CD350008747368656C6C000073687278C0
:1035B000000000006E6F206D656D6F727920666F80
:1035C00072207368656C6C0A000000009F4E706981
:1035D00090F8211041F0010180F82110FFF75CFF05
:1035E00001F0E4FB01274FF002080025FFF78EFFF2
:1035F00004462000FAD41B2C07D0736993F82000EE
:10360000012806D002280CD015E0706980F82070DF
:10361000ECE75B2C02D083F820500CE083F820808C
:10362000E4E783F82050412CE0D0422CDED0442C3B
:1036300046D0432C52D0002CD8D0FF2CD6D0092C09
:103640005FD07F2C7CD0082C7AD00D2C76D00A2C21
:1036500074D0B3F87200502801D3A3F87250B3F8B5
:103660007400B3F87210884269D20A1A03F1220179
:1036700023330144184401F033FC7069B0F874102E
:1036800022300C54706990F8211011F0010F06D00F
:10369000B0F87410223001446DA001F087FB70690E
:1036A000B0F87440B0F87200A0427DDD69A001F06E
:1036B0007DFB641C7069B0F87200A042F6DCB1E0DA
:1036C000B3F87400002891D062A001F06FFB70691C
:1036D000B0F87410491EA0F8741087E7B3F87400AE
:1036E000B3F87210884281D203F12201415C5AA0E2
:1036F00001F05CFB7069B0F87410491CA0F87410FC
:1037000074E70024B3F87400002808DD51A001F02C
:103710004DFB641C7069B0F87400A042F6DC70695F
:10372000223002F0F5FB70692230FCF7BFFE7169B0
:10373000A1F87200A1F8740058E701E043E064E0EA
:10374000B3F8740000283FF451AFB3F87210491E6B
:1037500089B2A3F87210401E80B2A3F874008142AF
:1037600028D90A1A03F1230122330144184401F035
:10377000B7FB7069B0F8721022300D547069B0F860
:1037800074102230014435A001F010FB7069B0F8CC
:103790007440B0F87200A042FFF628AF2DA001F0EF
:1037A00005FB641C706900E03CE0B0F87200A042C8
:1037B000F4DA1BE72BA001F0F9FA7069B0F8721087
:1037C00022300D5412E700F059FE01280ED1706925
:1037D00090F8210010F0010F02D023A001F0E6FACA
:1037E0007069B0F87210223000F0AAFDFFF754FEA5
:1037F00001F0DCFA706950212230FCF7FFFE70699D
:10380000A0F87250A0F87450F0E603F122000C54B6
:10381000706990F8210010F0010F03D00EA021462E
:1038200001F0C4FA7069B0F87210491C89B2A0F8AE
:103830007210B0F87420521CA0F874205029FFF4C4
:10384000D5AEA0F87250A0F87450CFE6C0000024A6
:103850002573000008000000256300000825732080
:1038600020080000082008000A00000010B5124CD3
:10387000206810F0020F02D010A001F097FA206823
:1038800010F0804F0ED01348007808B1FFF734FDD8
:103890001148007808B100F08DFC1048008808B18C
:1038A00002F06CFC206810F0004F04D0BDE810401E
:1038B0000BA001F07BBA10BD2CED00E06661696CD5
:1038C000656420766563746F722066657463680A48
:1038D0000000000029ED00E028ED00E02AED00E006
:1038E0006465627567206576656E740A0000000085
:1038F00010B502A001F05AFA002010BD48656C6CAA
:103900006F2052542D546872656164210A000000D2
:1039100070B50DA001F04AFA10480468104D2868EF
:1039200084420ED2206802220EA1FCF7DEFD20B1F7
:1039300062680DA0216801F039FA0C3428688442CD
:10394000F0D3002070BD00002D2D46756E637469A4
:103950006F6E204C6973743A0A000000C0000024A6
:10396000C40000245F5F0000252D313673202D2D0B
:103970002025730A000000002DE9F04104460D46A1
:1039800016461F46284601F04BFB001D206025729D
:103990006660E76000202061BDE8F0812DE9F0411C
:1039A0000D46002600212961E968002909D0297AFD
:1039B00039B12F6840B10446FCF7DEFC014636B150
:1039C00013E00020BDE8F0813C460126F4E7A4F1B5
:1039D0000C002A7A007A20F08000904205D0084638
:1039E000FCF7CEFC0020BDE8F08100266868246862
:1039F000BC4201D1002405E0761C40F8044BEA6883
:103A0000B242F4D10846FCF7BBFC2E612046BDE86B
:103A1000F08100002DE9F04192B000273DA4082379
:103A2000052104AA0CA8FFF7A7FF4FF008082246BB
:103A30003AA0414601F0BAF90724414801F0B6F92D
:103A4000641EFAD23FA001F0B1F904AE38460CA9C9
:103A5000FFF7A4FF074600251098002835DD56F82B
:103A60002500A0F10C04FCF787FC217A9DF8382092
:103A700021F08001914202D0FCF782FC21E0FCF7AA
:103A80007FFC04F11400D0F800C0844501D101206E
:103A900000E00020F8B104F1140100200A468C4532
:103AA00004D01268401C13688B42FAD1628C234602
:103AB000218C0092082201914146029028A001F039
:103AC00075F96D1C1098A842C9DC002FBED112B048
:103AD0000020BDE8F08104F1140000230246844573
:103AE00004D012685B1C11688142FAD1208C082234
:103AF000618C029323460091414601901EA001F083
:103B000055F904F1140002F01FFA1AA001F04EF961
:103B1000D7E700006D61696C626F7800252D2A2E51
:103B20007320656E7472792073697A65207375737A
:103B300070656E64207468726561640A000000003C
:103B4000883E0008202D2D2D2D20202D2D2D2D20BF
:103B50002D2D2D2D2D2D2D2D2D2D2D2D2D2D0A00E5
:103B6000252D2A2E2A732025303464202025303438
:103B7000642025640A000000252D2A2E2A732025A2
:103B80003034642020253034642025643A0000005D
:103B900010B5074C07A0E16801F008F921690AA0F7
:103BA00001F004F961690DA0BDE8104001F0FEB814
:103BB00038000024746F74616C206D656D6F7279CC
:103BC0003A2025640A00000075736564206D656DF8
:103BD0006F7279203A2025640A0000006D617869CF
:103BE0006D756D20616C6C6F6361746564206D65CB
:103BF0006D6F72793A2025640A0000002DE9F041CA
:103C000090B000273BA40823022102AA0AA8FFF7CC
:103C1000B3FE4FF00808224639A0414601F0C6F82D
:103C200007243E4801F0C2F8641EFAD23CA001F01D
:103C3000BDF802AE38460AA9FFF7B0FE07460025D8
:103C40000E98002833DD56F82500A0F10C04FCF78F
:103C500093FB217A9DF8302021F08001914202D01F
:103C6000FCF78EFB1FE0FCF78BFB04F11400D0F88F
:103C700000C0844501D1012000E00020E8B104F13A
:103C8000140100200A468C4504D01268401C1368B9
:103C90008B42FAD1A18B0822234600914146019024
:103CA00025A001F083F86D1C0E98A842CBDC002FF4
:103CB000C0D110B00020BDE8F08104F11400002351
:103CC0000246844504D012685B1C11688142FAD117
:103CD000A08B082241460193234600901AA001F0D0
:103CE00065F804F1140002F02FF90BA001F05EF862
:103CF000D9E7000073656D6170686F726500000040
:103D0000252D2A2E73207620202073757370656E02
:103D100064207468726561640A000000883E0008CF
:103D2000202D2D2D202D2D2D2D2D2D2D2D2D2D2DDD
:103D30002D2D2D0A00000000252D2A2E2A73202566
:103D40003033642025640A00252D2A2E2A7320256D
:103D50003033642025643A002DE9F043ADB00027EC
:103D600046A40823012120AA28A8FFF705FE4FF04A
:103D7000080844482246414601F018F8072442A0AA
:103D800001F014F8641EFAD240A001F00FF820AE42
:103D9000384628A9FFF702FE074600252C98002880
:103DA00065DD56F82500A0F10C04FCF7E5FA814624
:103DB000207A9DF8A81020F08000884203D0484661
:103DC000FCF7DEFA4FE07822214602A8FCF7E4FB7C
:103DD0004846FCF7D5FA94F83500082223464146B8
:103DE00000903AA000F0E2FF94F8340000F00F01D8
:103DF000012907D0022909D061B104290ED0032975
:103E000010D012E034A000F0D1FF0EE035A000F099
:103E1000CDFF0AE036A000F0C9FF06E037A000F0B1
:103E2000C5FF02E038A000F0C1FFA16A8C469CF8F3
:103E30000000232803D11CF8010F2328FBD0E26ADD
:103E4000ACEB01006423101A00FB03F0236BB0FB02
:103E5000F2FC206C01930090E069081A81182DA0F3
:103E6000634600F0A3FF6D1C2C98A84299DC002F3C
:103E70008ED12DB00020BDE8F0830000746872651B
:103E8000616400007C6500082D000000202D2D2DB0
:103E900020202D2D2D2D2D2D2D202D2D2D2D2D2D79
:103EA0002D2D2D2D202D2D2D2D2D2D2D2D2D2D205C
:103EB000202D2D2D2D2D2D20202D2D2D2D2D2D2D59
:103EC0002D2D2D202D2D2D0A00000000252D2A2E10
:103ED0002A732025336420002072656164792020D4
:103EE000000000002073757370656E6400000000B0
:103EF00020696E69742020200000000020636C6F30
:103F000073652020000000002072756E6E696E6778
:103F100000000000203078253038782030782530B7
:103F2000387820202020253032642525202020309C
:103F3000782530387820253033640A002DE9F041A7
:103F400090B000272BA408230A2102AA0AA8FFF791
:103F500013FD4FF00808224628A0414600F026FF36
:103F60000724304800F022FF641EFAD22EA000F091
:103F70001DFF02AE38460AA9FFF710FD07460024D0
:103F80000E9800282ADD56F82400A0F10C05FCF755
:103F9000F3F9297A9DF8302021F08001914202D076
:103FA000FCF7EEF916E0FCF7EBF9A96A0822686A5B
:103FB0002B4601914146009024A000F0F7FE687A5C
:103FC00010F0010F03D027A000F0F0FE02E028A0BF
:103FD00000F0ECFE641C0E98A042D4DC002FC9D186
:103FE00001F058FC014626A000F0E0FE10B00020D1
:103FF000BDE8F08174696D6572000000252D2A2EE0
:10400000732020706572696F646963202020746971
:104010006D656F757420202020202020666C6167FC
:104020000A000000883E0008202D2D2D2D2D2D2D5D
:104030002D2D2D202D2D2D2D2D2D2D2D2D2D202DCA
:104040002D2D2D2D2D2D2D2D2D2D0A00252D2A2EFA
:104050002A73203078253038782030782530387829
:10406000200000006163746976617465640A000071
:1040700064656163746976617465640A00000000B8
:1040800063757272656E74207469636B3A3078255B
:104090003038780A000000002DE9FC41284C00204F
:1040A00004F10C016288FEF789FF6288002004F1A8
:1040B0001001FEF74BFF04F1100122A000F076FE84
:1040C00025A000F073FE4FF04045AA2125A02970DD
:1040D00000F06CFE23A04BF6BB31698100F066FE58
:1040E00020A04FF0CC31696100F060FE20A000F00C
:1040F0005DFE0A25204906204FF48067CDE90005C2
:1041000000223B461DA001F052FA204E4FF0FF382E
:10411000606088B101F03CFB07201D49CDE9000536
:1041200000223B461BA001F042FAA06020B101F042
:104130002FFB0020BDE8FC816520B0624046F9E716
:1041400000000024656570726F6D207465737420C3
:104150003D2025730A000000534452616D5F546591
:1041600073740A0074656D70203D2025640A000098
:1041700053746172740A0000B12600085041395F1F
:104180007468726561645F6F6E000000001001402A
:10419000B12700087468726561645F746573745F49
:1041A000646D610010B500F0FFFABDE81040FFF744
:1041B00073BF000010B51AA000F0F8FD1D4C217867
:1041C0001DA000F0F3FD207810F0010F02D020A018
:1041D00000F0ECFD207810F0020F02D01FA000F0DC
:1041E000E5FD207810F0080F02D01FA000F0DEFDE2
:1041F000207810F0100F02D01EA000F0D7FD20781C
:1042000010F0800F06D01E4801681EA0BDE81040C7
:1042100000F0CCBDBDE810401EA000F0C7BD0000FE
:104220006D656D206D616E616765206661756C748A
:104230003A0A000028ED00E05343425F43465352E0
:104240005F4D4653523A30782530325820000000F6
:104250004941434356494F4C2000000044414343E9
:1042600056494F4C200000004D554E53544B45527B
:10427000522000004D53544B455252200000000084
:1042800034ED00E05343422D3E4D4D41523A25302E
:1042900038580A000A0000002DE9F0478146002541
:1042A000002699F8000000280ED020480468DFF8A6
:1042B0008080D8F8000084422DD2206806221DA1FB
:1042C000FCF713F910BB05E0BDE8F04700210846F4
:1042D00000F096B82068871D4846FCF7E7F80246CC
:1042E00039464846FCF701F980B925B93E463046C3
:1042F000FCF7DCF805463946304601F03DFEA842A1
:1043000000DA054639460DA000F050FD0C34D8F80F
:1043100000008442D1D3002E06D02A4631464846BA
:10432000BDE8F04701F096B8BDE8F087C000002472
:10433000C40000245F5F636D645F000025730A00A2
:1043400038B5054601E06D1C491E21B128782028AA
:10435000F9D00928F7D031B16A462846FEF74AFD60
:1043600018B12C4604E0002038BD009838BD641C0C
:104370002078202801D00028F9D10020207003A047
:10438000294600F013FD4FF0FF3038BD25733A2069
:10439000636F6D6D616E64206E6F7420666F756EF5
:1043A000642E0A002DE9F047814688460026104811
:1043B0000468104F3868844215D208F10605206859
:1043C00006220DA1FCF791F848B9206842464946FB
:1043D000801DFCF78AF810B92068405D30B10C34BC
:1043E00038688442EBD33046BDE8F087A668FAE728
:1043F000C0000024C40000245F5F636D645F0000A0
:1044000070B50FA000F0D2FC14480468144D286861
:1044100084420FD22068062212A1FCF766F828B960
:1044200020686268811D11A000F0C0FC0C3428686F
:104430008442EFD310A000F0B9FC002070BD000052
:1044400052542D546872656164207368656C6C20E9
:10445000636F6D6D616E64733A0A0000C0000024E2
:10446000C40000245F5F636D645F0000252D31365A
:1044700073202D2025730A000A00000001207047D8
:1044800070B5154600230024002950D9002602E00B
:104490000670401C5B1C90F800C0BCF1200F02D0DD
:1044A000BCF1090F01D18B42F2D3082C0FD321A00C
:1044B00000F07CFC002627A055F8261000F076FCC2
:1044C000761CA642F7D322A000F070FC2FE08B42AE
:1044D0002DD20278222A03D045F82400641C1BE068
:1044E000401C5B1C45F82400641C08E05C2A04D1D5
:1044F0004278222A01D1401C5B1C401C5B1C0278C4
:10450000222A01D08B42F1D38B4210D20670401C7C
:104510005B1C0AE0401C5B1C0278202A03D0092A9D
:1045200001D08B42F6D38B4201D28B42B3D32046CB
:1045300070BD0000546F6F206D616E7920617267ED
:10454000732021205765206F6E6C79205573653A72
:104550000A000000257320004DF8044DDFF860C00C
:104560004168DCF800201144884202F1080310D0B1
:104570004C8874B9DCF80440A1420AD0DCF8084049
:104580008C4201D1CCF808004C684460841A496818
:10459000CC508168114481420FD04C88002C0CD142
:1045A000DCF80840844201D1CCF80810D0F804C0EF
:1045B000C1F804C0891A4068C1505DF8044B7047C7
:1045C000380000242DE9F04F86B0DDF83CC0109D86
:1045D000119CA846CDF800C014F0400F02D0DFF8BF
:1045E00048A101E0DFF844A114F0100F01D024F03D
:1045F000010414F0010F02D04FF0300901E04FF038
:104600002009002614F0020F0DD0002A02DA2D2610
:10461000524208E014F0040F01D02B2603E014F0FE
:10462000080F00D020264FF0000C0DF1040B2AB922
:1046300030224FF0010C8DF804200DE00A2B16D02B
:1046400002F00F0712091AF807E067460CF1010C97
:104650000BF807E0002AF1D1AC4500DD6546009A71
:10466000521B4FF0200714F0110F0DD01CE0304FFB
:10467000A7FB02E74FEAD70ECEF1000707EB87074B
:1046800002EB47077246DEE716B1002A00DD521E34
:10469000131EA2F1010207DD884200D20770401C00
:1046A000131EA2F10102F7DC26B1884200D2067087
:1046B000521E401C14F0100F0CD1131EA2F1010267
:1046C00008DD884201D280F80090401C131EA2F140
:1046D0000102F6DC6B1E65450FDD3024884200D2F6
:1046E0000470401C1D465B1E6545F7DC05E08842F2
:1046F00002D21BF80C300370401CBCF10003ACF17B
:10470000010C02DDB8F1000FF1D1531E002A07DDC4
:10471000884200D20770401C1A1EA3F10103F7DC87
:1047200006B0BDE8F08F0000696500085865000814
:10473000CDCCCCCC4DF804ED83B014200A210091EF
:10474000002206494FF48073019005A000F02FFF6E
:1047500003B05DF804EB01F01BB80000A5410008B0
:104760006D61696E0000000070B500FB01F0044649
:1047700000F02EFB0546280003D00021224600F061
:10478000CAFB284670BD000070B5054C054DAC4213
:1047900004D220688047241DAC42FAD370BD0000CB
:1047A000086800081068000870B5054C054DAC425B
:1047B00004D220688047241DAC42FAD370BD0000AB
:1047C000106800081868000810B5FBF7D5FD04490B
:1047D0004A88521C4A80BDE81040FBF7D1BD00005A
:1047E0009000002410B5FBF7C7FD0B4C6188491EF3
:1047F00009B2618000290ADC00216180FBF7C0FD5D
:104800006068002807D0BDE8104000F0C9BCBDE8D2
:104810001040FBF7B5BD10BD9000002470B5002816
:1048200034D01B4D2968884230D3696888422DD224
:10483000A0F10C0417484FF0FF3100F072FD6088C2
:1048400018B12088B0F5F55F08D013A000F0AEFADB
:10485000238818A06288214600F0A8FA0020608012
:104860004FF4F5502080A868844200D2AC602968DB
:104870006068611A401A2969081A28612046FFF702
:104880006BFEBDE87040034800F01FBD70BD000026
:1048900038000024F8120024746F206672656520C9
:1048A0006120626164206461746120626C6F636B7B
:1048B0003A0A00006D656D3A203078253038782C42
:1048C000207573656420666C61673A2025642C202E
:1048D0006D6167696320636F64653A2030782530C5
:1048E00034780A0000487047541400240048704788
:1048F000545000242DE9F041404E30684FF0000440
:1049000010F4003F11D1BFF34F8FBFF36F8F3C48BE
:104910000460BFF34F8FBFF36F8F306840F40030F7
:104920003060BFF34F8FBFF36F8F306810F4803F5C
:1049300021D134480460BFF34F8F001F0068C0F3DB
:104940004E3C314A43F6FF77C0F3C905284607EAD3
:104950004C1141EA80731360401EFAD2BCF1010C85
:10496000F4D2BFF34F8F306840F480303060BFF333
:104970004F8FBFF36F8FFCF7BFF9FDF767FFFEF7AF
:1049800019F80320FCF7C4FF4FF47A71B0FBF1F083
:10499000401EB0F1807F08D24FF0E0214861F02046
:1049A0001A4A10708C6107200861FDF761FCFDF761
:1049B000B7FB002001F0F0FAFDF7F4FB14491022D8
:1049C00001F1100000F0B3FB0023154811A11A46B5
:1049D00000F06AFCFDF72CFDFDF77CFCFDF7E2FC26
:1049E000FEF746FBFFF7D0FEFFF780FF0446FFF718
:1049F00079FF2146BDE8F04100F042BD14ED00E032
:104A000050EF00E084ED00E060EF00E023ED00E017
:104A1000181400247368656C6C5F727800000000E5
:104A20003414002408B5002000906946094800F0BD
:104A30005BFB01280AD008484FF0FF3100F071FC01
:104A40000448694600F050FB0128F4D19DF80000AD
:104A500008BD0000281400243414002470B5054655
:104A600000240D26284600F0EDFC0346180013D064
:104A70000A49C869C0F3C012002AFAD0285D0A2882
:104A800005D18E62C869C0F3C012002AFAD0285D31
:104A90008862641C9C42ECD370BD00000010014091
:104AA00070B5054605F128002C1D3149096800291B
:104AB00002D08847002859D0216C2EA000F076F94A
:104AC000616A30A000F072F9A16A32A000F06EF9BC
:104AD000E16A34A000F06AF9216B36A000F066F9B3
:104AE000616838A000F062F9A1683AA000F05EF9B0
:104AF000E1683CA000F05AF921693EA000F056F9A7
:104B0000616940A000F052F9A16942A000F04EF99D
:104B1000E16944A000F04AF9216A46A000F046F994
:104B2000616B48A000F042F9A16B4AA000F03EF989
:104B3000E16B4CA000F03AF9287810F0040F08D08F
:104B400000F020FE01464BA000F030F9FFF704F919
:104B500002E050A000F02AF9287810F0100F02D1DE
:104B600053A000F023F9FEF781FEFEE770BD0000C0
:104B7000B00000247073723A203078253038780AFB
:104B8000000000007230303A203078253038780A42
:104B9000000000007230313A203078253038780A31
:104BA000000000007230323A203078253038780A20
:104BB000000000007230333A203078253038780A0F
:104BC000000000007230343A203078253038780AFE
:104BD000000000007230353A203078253038780AED
:104BE000000000007230363A203078253038780ADC
:104BF000000000007230373A203078253038780ACB
:104C0000000000007230383A203078253038780AB9
:104C1000000000007230393A203078253038780AA8
:104C2000000000007231303A203078253038780AA0
:104C3000000000007231313A203078253038780A8F
:104C4000000000007231323A203078253038780A7E
:104C500000000000206C723A203078253038780A45
:104C6000000000002070633A203078253038780A40
:104C70000000000068617264206661756C74206FCA
:104C80006E207468726561643A2025730D0A0D0AFE
:104C90000000000068617264206661756C74206FAA
:104CA0006E2068616E646C65720D0A0D0A0000006A
:104CB00046505520616374697665210D0A00000035
:104CC00030B40546101D20F00700A0F14404204632
:104CD0000022DFF82CC040F822C0521C112AFAD35F
:104CE000416200218162C162016341638363C563E4
:104CF0004FF0807202640160204630BC70470000B3
:104D0000EFBEADDE10B5FBF737FB04490A78521C45
:104D10000A70BDE81040FBF733BB000034000024EC
:104D200010B5FBF729FB04490A78521E0A70BDE84A
:104D30001040FBF725BB00003400002470B504468A
:104D40000D461646284600F038FD16B1012E2BD12F
:104D500008E005F114006168086061684160606006
:104D6000046021E02068A04214D095F83510A0F12D
:104D7000140292F83530994209D2143205F1140325
:104D800051680B605168596053601A6002E0006816
:104D9000A042ECD1A04207D105F11400616808607F
:104DA0006168416060600460002070BD0FB408B5A8
:104DB00003AB0093FF210548029A00F0F5FE03487B
:104DC000FFF74CFE01B05DF814FB0000F811002461
:104DD0002DE9F047002809D0C01C20F003053E4E05
:104DE000F068854205D90020BDE8F0870020BDE8C5
:104DF000F0870C2D00D20C2538484FF0FF3100F021
:104E000090FAD6F808C03168ACEB0100F7687B1B5C
:104E100083425BD90C186288002A54D16268121A46
:104E20000C3AAA424FD3626805F118034FF001090A
:104E30004FF4F558121A0C3A9A4223D3421902F150
:104E40000C03CA18A2F800804FF0000AA2F802A0D2
:104E5000D4F804A0C2F804A090606360A4F80290A3
:104E6000506807F10C02904202D001F10802835011
:104E70003069324628440C303061536983420DD288
:104E800050610BE0A4F80290621A6068801A3269DF
:104E9000104430617269824200D27061A4F80080CF
:104EA000644503D008E040680844B060B0684288B8
:104EB00012B172689042F6D1084800F006FA04F187
:104EC0000C00BDE8F08760688342A3D8034800F077
:104ED000FCF90020BDE8F08738000024F812002417
:104EE0000346184681420DD201EB020C9C4509D9BC
:104EF0009918521E05D31CF8013D01F8013D521EC0
:104F0000F9D27047521EFCD311F801CB03F801CB44
:104F1000521EF9D27047034601F0FF0C042A1CD33D
:104F200010F0030F19D101464CEA0C2343EA034366
:104F3000102A0AD341F8043B41F8043B41F8043BF2
:104F400041F8043B103A102AF4D2042A04D341F861
:104F5000043B121F042AFAD20B46511E05D30CF053
:104F6000FF0203F8012B491EFBD270472DE9F041E7
:104F700006460F46304600F053F80546E868FFF74E
:104F800027FF0446E4B1EA6800212046FFF7C3FF8B
:104F900026720020607208223946204600F05AFA34
:104FA000FBF7EAF9291D04F10C020B685A600B6843
:104FB00013600A605160FBF7E3F92046BDE8F08119
:104FC0000020BDE8F08110B5044600202072FBF7F8
:104FD000D3F904F10C010B684A685A604B680A68FF
:104FE0001A6049600960FBF7CBF92046BDE8104024
:104FF000FFF714BC10B5044600202072FBF7BCF983
:10500000014604F10C00036842685A604368026874
:105010001A60406000600846BDE81040FBF7B0B978
:105020000021074A02EB01131B78834202D102EBF5
:1050300001107047491C0429F4DB00207047000070
:10504000500000242DE9F04105460E461746304633
:10505000FFF7E6FF0446FFF7B7FB6068211D8842B3
:1050600002D000688842FCD1FFF7BCFB46F080000C
:10507000287208223946284600F0ECF9FBF77CF943
:105080000246201D05F10C010368596003680B609E
:10509000016048601046BDE8F041FBF771B9007A45
:1050A00010F0800F01D0012070470020704710B52C
:1050B0008288C1885308B3EB510F08D1D207B2EBF5
:1050C000C17F01D1002010BDB0F9080010BD4C080F
:1050D000B4EB520F02D9A4EB520010BDB0F9080096
:1050E000A3EB5101401A10BD30B50D460446FFF741
:1050F000DEFF00281AD0A188206800EB510000785C
:105100002870B4F90800A188401EB0EB510F06D1F9
:10511000C84360F3000101F00100A08005E0012018
:1051200000EB510060F34F01A180012030BD70B54C
:10513000067922F003058379002406F0010201605C
:1051400003F00103058164F30002828064F300032D
:10515000C38070BD30B50D460446FFF7A8FFB4F913
:105160000810884201D1002030BDE188206800EBA2
:1051700051000570B4F90810E088491EB1EB500FDA
:1051800005D1C14361F3000000F0010004E00121FA
:1051900001EB500161F34F00E080012030BD0000C1
:1051A00070B5FBF7E9F80546134C6088A8B9A0680C
:1051B000FDF7FCFD421E114850F83200A0F1140129
:1051C0006368994209D0227061600D48007848B147
:1051D0001C3103F11C00FBF7D6F82846BDE87040EF
:1051E000FBF7CEB81C3103F11C00FBF7CCF82846C6
:1051F000BDE87040FBF7C4B89000002418130024E9
:105200003400002410B50446FBF7B6F8024694F8C3
:10521000340020F00F0040F0010084F8340094F8CE
:1052200035000A4901EBC00104F114004B68186015
:105230004B684360486001600548A16B836819436F
:105240008160BDE810401046FBF79AB8181300249F
:105250009000002410B50446FBF78EF8024604F1D6
:1052600014010B68486858604B680868186049600A
:10527000096094F835000A4901EBC00001688142D9
:1052800001D1012000E0002028B10648A16B83680D
:1052900023EA01018160BDE810401046FBF770B8B9
:1052A000181300249000002470B5044615461E46CD
:1052B0000A4602212046FFF7C5FE04F114014960A9
:1052C0000960A5836672002070BD70B50446002594
:1052D000FBF752F8064604F114000168814201D13F
:1052E000012000E0002038B1A08B4FF6FF7188420A
:1052F0000DD2401CA08304E0A1F1140000F01DFABF
:1053000001253046FBF73CF8012D06D007E030467A
:10531000FBF736F86FF0020070BDFFF741FF002089
:1053200070BD73B50446FBF727F80646A08B28B17D
:10533000401EA0833046FBF723F821E0019810B30C
:1053400000F020FA05460020286304F11400627A78
:105350002946FFF7F3FC0198002809DD002101AA86
:1053600005F1440000F02CFB05F1440000F08AFB3D
:105370003046FBF705F8FFF713FF286B002800D134
:10538000002002B070BD3046FAF7FAFF02B06FF0AD
:10539000010070BD08B509A0FFF708FD0AA0FFF7DE
:1053A00005FD12A0009005230122032112A0FFF7A2
:1053B000FDFCBDE8084018A0FFF7F8BC0A205C20FF
:1053C0007C202F0A000000002D205254202D202088
:1053D000202020546872656164204F70657261748A
:1053E000696E672053797374656D0A004D61722090
:1053F0003130203230323400202F207C205C2020BD
:1054000020202025642E25642E2564206275696C79
:10541000642025730A0000002032303036202D2011
:105420003230323020436F7079726967687420625D
:10543000792072742D746872656164207465616D81
:105440000A000000014600E0491C0A78002AFBD14E
:10545000081A7047002A09D0034611F801CBBCF1A5
:10546000000F03F801CB02D0521EF6D17047511E37
:10547000FCD0002203F8012B491EFBD1704700002D
:105480000A4610B5C11C21F0030122F00303182BBA
:1054900022D9A3F1180C8C451ED3124C581A183877
:1054A000E06021604FF4F5530B8000F10C024A607C
:1054B00000208860488048680844606003800121BB
:1054C00041804260826000230948012206A1FFF763
:1054D000EBFE2068A06010BDBDE81040014605A0AD
:1054E000FFF764BC380000246865617000000000AC
:1054F000F81200246D656D20696E69742C20657248
:10550000726F7220626567696E2061646472657390
:105510007320307825782C20616E6420656E6420BD
:105520006164647265737320307825780A00000026
:105530000B4B4FF0000CA3F802C00020094A02EB0D
:10554000C00149600960401C2028F8DB1F2018704A
:10555000C3F804C0C3F808C0034840600060704747
:1055600090000024181300249C00002410B5074C60
:10557000A068FDF71BFC401E054951F830001438A7
:105580006060BDE810401C30FAF743BF9000002473
:10559000181300240020044A02EBC001496009608E
:1055A000401C0028F8D07047A800002470472DE95F
:1055B000F04784B08046894692461E460D9D0C9C5D
:1055C00001204146FFF7D2FC0746380011D0304693
:1055D000FFF7FEFB88B153464A46414601960395C4
:1055E000029400903846FDF73BFC04B03846BDE815
:1055F000F08704B00020BDE8F0873846FFF7E3FCF1
:1056000004B00020BDE8F08770B515480468FAF7CB
:10561000B3FE05462046FDF775FC2046FFF71AFE4F
:10562000042084F8340004F1440000F0F3F920462B
:10563000FFF735FD01280FD00A4904F114000A686C
:1056400050600A68026008604160FFF7A9FD2846C3
:10565000BDE87040FAF794BE2046FFF7CBFCF4E7B4
:10566000940000249C00002400F002F8FCE70000F5
:1056700070B5134C17E0012100E00021D9B1216879
:10568000A1F114060A68486850604A68086810600A
:1056900049600960B06AFFF7C1F83046FFF793FC34
:1056A0002846FAF76DFEFAF767FE054604490868D2
:1056B0008842E2D0DFE72846BDE87040FAF760BED6
:1056C0009C0000244DF804ED85B00A4B20201F21DA
:1056D000C20001920390084A0A48009300230291F5
:1056E00006A100F011F805B006485DF804EB00F0E3
:1056F0004FB80000F8100024695600087469646C03
:1057000065000000801000242DE9F04F85B081462F
:105710000EAC884692469B46F0CC01214246484654
:10572000FFF790FC8DE8F0005B4652464146484644
:10573000FDF796FB05B0BDE8F08F70B5044694F810
:10574000340000F00F00022802D04FF0FF3070BD8F
:10575000FAF712FE054604F114010A684868506021
:105760004A68086810604960096004F1440000F06C
:10577000F1F92846FAF704FE2046FFF743FD002022
:1057800070BD0000014800687047000094000024CC
:1057900010B590F8361080F83510012202FA01F1A8
:1057A0008163022180F83410FFF7C7FFFFF7EAFF9B
:1057B00008B1FFF7F5FC002010BD70B5044694F861
:1057C000340000F00F00012802D04FF0FF3070BD10
:1057D000FAF7D2FD05462046FFF73CFD94F8340069
:1057E00020F00F0040F0020084F8340004F144007F
:1057F00000F0B0F92846FAF7C3FD002070BD10B5DF
:105800006FF00101016300F114010B684A685A60EE
:105810004B680A681A6049600960FFF7F3FCBDE84D
:105820001040FFF7BDBC000010B5FAF7A5FD174901
:10583000096891F8342002F00F02012A21D1D1F831
:1058400014C08B699C451CD001F11402CCF80430C3
:10585000D2F804C01368CCF800305260126091F89E
:10586000352014310A4B03EBC202536819605368A8
:105870004B6051600A60FAF783FDFFF791FC00204E
:1058800010BDFAF77DFD002010BD0000940000243B
:1058900018130024014800687047000030000024FD
:1058A00010B509480168491C0160FFF76BFF016CE6
:1058B000491E016419B9C16B0164FFF7B5FFBDE86A
:1058C000104000F003B80000300000242DE9F04142
:1058D00082B0684601900090FFF7DCFF8046FAF73F
:1058E0004BFD074635480168814201D1012000E0A7
:1058F000002000285CD1314D6FF000462868A0F1EF
:105900001404A06AA8EB0000B04251D22246002045
:1059100002EBC0011431D1F800C04B68CCF8043060
:10592000D1F804C00B68CCF8003049600960401C15
:105930000128EDDB607A10F0020F02D120F00100A7
:10594000607204F114006946009A5060009A026087
:1059500000904160E169206A8847FFF79BFF80461D
:1059600068460099814201D1012000E00020B0B9D1
:1059700004F11400026841685160426801681160D6
:1059800040600060607A10F0020F08D010F0010F44
:1059900005D020F001006072204600F073F807483F
:1059A0000168814201D1012000E000200028A5D03B
:1059B0003846FAF7E5FC02B0BDE8F081A800002403
:1059C00070B504460E461546FAF7D6FC052E1DD2D4
:1059D000DFE806F00603090E1300616A296015E08E
:1059E0002968616212E0617A21F0020161720DE0C2
:1059F000617A41F00201617208E0617A11F0010FF1
:105A000002D00121296001E000212960FAF7B8FCE9
:105A1000002070BD70B50546FAF7AEFC2C4600229A
:105A200004EBC2011431D1F800C04B68CCF804304B
:105A3000D1F804C00B68CCF8003049600960521CF2
:105A4000012AEDDB697A21F001016972FAF798FC0D
:105A50002846FFF7CFFA002070BD2DE9F8438046B5
:105A600016461F46089D099C0A460A214046FFF734
:105A7000E9FA2B463A46314640460094FDF72EFAA5
:105A8000BDE8F8832DE9F8430446FAF775FC0546AE
:105A90002246002002EBC0011431D1F800C04B684F
:105AA000CCF80430D1F804C00B68CCF80030496061
:105AB0000960401C0128EDDB607A20F00100607273
:105AC000FFF7E8FE616A00EB010CC4F828C01F4F25
:105AD000009700216FF00048684607EBC10350F8BB
