:020000040800F2
:10000000E852002451030008096400087304000842
:10001000730400080F140008F57F000800000000BA
:100020000000000000000000000000006303000862
:100030003519000800000000BF030008C166000871
:100040006B0300086B0300086B0300086B030008D8
:100050006B0300086B0300086B0300086B030008C8
:100060006B0300086B0300086B0300081114000801
:10007000291400086B0300086B0300086B030008D9
:100080006B0300086B0300086B0300086B03000898
:100090006B0300086B0300086B0300086B03000888
:1000A0006B0300086B0300086B030008CD690008B0
:1000B000D96900086B0300086B0300086B03000894
:1000C0006B0300086B0300086B0300086B03000858
:1000D0006B030008197F0008317F00086B030008DC
:1000E0006B0300086B030008000000006B030008AE
:1000F0006B0300086B0300086B0300086B03000828
:100100006B0300086B0300086B0300086B03000817
:100110000D7000086B0300086B0300086B030008F8
:1001200035140008411400086B0300086B03000835
:100130006B0300086B0300086B0300086B030008E7
:1001400000000000000000000000000000000000AF
:100150006B0300086B0300086B0300086B030008C7
:100160006B0300086B0300086B0300086B030008B7
:100170006B0300086B0300086B0300086B030008A7
:100180006B0300086B0300086B0300086B03000897
:100190006B0300086B0300086B0300086B03000887
:1001A0006B0300086B0300086B0300086B03000877
:1001B0006B0300086B0300086B0300086B03000867
:1001C0006B0300086B0300086B0300086B03000857
:1001D0006B0300086B0300086B0300086B03000847
:1001E0006B0300086B0300086B0300086B03000837
:1001F0006B0300086B0300086B0300086B03000827
:100200006B0300086B0300086B0300086B03000816
:100210006B0300086B0300086B0300086B03000806
:100220006B0300086B0300086B030008000000006C
:100230006B0300086B030008000000006B0300085C
:100240006B0300086B0300086B0300086B030008D6
:100250006B0300086B0300086B0300086B030008C6
:100260006B0300086B0300086B0300086B030008B6
:100270006B0300086B0300086B030008000000001C
:100280006B0300086B0300086B030008000000000C
:10029000000000006B03000800F002F800F049F8CD
:1002A0000AA090E8000C82448344AAF10107DA45D1
:1002B00001D100F03EF8AFF2090EBAE80F0013F0DA
:1002C000010F18BFFB1A43F00103184734B20000B6
:1002D00054B20000103A24BF78C878C1FAD8520747
:1002E00024BF30C830C144BF04680C6070470000B0
:1002F0000023002400250026103A28BF78C1FBD82F
:10030000520728BF30C148BF0B607047642900F016
:100310009181002070471FB50AF093FE9DE803000D
:1003200000F062FE00F068FB1FBD10B500F0CDFBD1
:1003300010BD00F030FC1146FFF7EDFF01F062F850
:1003400000F020FE03B4FFF7F0FF03BC00F0BEFF97
:100350000948804709480047FEE7FEE7FEE7FEE759
:10036000FEE7FEE7FEE7FEE7FEE7FEE70448054995
:10037000054A064B70470000F16800089902000822
:10038000E84C0024E8520024E84E0024E84E002403
:10039000EFF3108072B6704780F310887047434ABD
:1003A0001368012B04D04FF001031360404A106022
:1003B000404A116040484FF0805101607047EFF3B0
:1003C000108272B63948016851B34FF000010160E4
:1003D0003748016891B1EFF309811EF0100F08BF93
:1003E00021ED108B21E9F00F4FF000041EF0100FEB
:1003F00008BF012441F8044D006801602D490968D7
:10040000096808C9B1E8F00F002B18BFB1EC108BD8
:1004100081F309884EF0100E002B18BF2EF0100E3D
:1004200082F310884EF0040E704722490860EFF303
:10043000148222F0040282F314881D494FF0000058
:1004400008601A494FF0010008601C484FF47F0112
:10045000D0F8002041EA0201016017484FF08051B6
:10046000016017480068006880F3088861B662B6CA
:1004700070471EF0040F0CBFEFF30880EFF3098004
:1004800020E9F00F40F804ED40F804ED1EF0040FF1
:100490000CBF80F3088880F3098800B509F094F94F
:1004A0005DF804EB4EF0040E70470000D800002405
:1004B000D0000024D400002404ED00E020ED00E092
:1004C00008ED00E053EA020C00F069802DE9F04BE2
:1004D0004FF00006002B1FBFB3FA83F503FA05F4B3
:1004E00024FA05F65E4012BF1643B2FA82F502FA0C
:1004F00005F4C5F120051EBF22FA05FC44EA0C04F0
:10050000203556EA044C4FEA144418BF641C4FF0DF
:1005100000084FF00009904271EB030C39D3002919
:1005200019BFB1FA81F701FA07F6B0FA80F700FABD
:1005300007F6C7F120071EBF20FA07FC46EA0C06A3
:100540002037B6FBF4FCA7EB0507103F07F01F0BA5
:10055000CBF120060CFA0BFB2CFA06F644BFB3468F
:100560000026202FA4BF5E464FF0000B5BEA060C6E
:1005700008BF4FF0010B19EB0B09ABFB027C48EBFA
:100580000608C01B06FB02CC0BFB03CC71EB0C0175
:10059000C1E70B46024641464846BDE8F08B13B51D
:1005A0004FF000004FF00001AFF30080BDE81C40A9
:1005B000704700000FB4044910B503AA029800F078
:1005C000EDF910BC5DF814FBDC4B00242DE9F04183
:1005D0000E460446002020622046E168884730B37A
:1005E000252805D0D4E901219047206A401CF2E774
:1005F000E168204600278847050018D0A5F1410092
:10060000192802D820354FF4006732462946204683
:100610002760FFF77BFE40B1012804D0F61D26F0CD
:1006200007060836D8E7361DD6E72846DAE7206AF7
:10063000BDE8F0812DE9F0410646002410687529D7
:10064000314616A510D0AFF30080002802DA4042F0
:1006500013A507E031688A0701D512A502E0490712
:1006600004D511A5012401E0AFF3008000210A2286
:1006700006F1240709E0B0FBF2FCB0FBF2F302FB49
:100680001C00303078541846491C0028F3D123460A
:100690002A463046BDE8F04100F027B900000000CE
:1006A0002D0000002B0000002000000010B5431CAE
:1006B00002E010F8011B71B18107FAD14FF001324D
:1006C00002C88C1A8C4314EAC211F9D0C01A0A0667
:1006D00003D0C01E10BDC01A10BD0A0401D0801E78
:1006E00010BD0902FCD0401E10BD40EA010370B5E8
:1006F0009B072ED14FF00136042A2AD308C810C90F
:100700009D1B9D43121F15EAC61517D0D8B2E1B242
:10071000401A50EA056110D198B2A1B2401A50EACD
:1007200005410AD123F07F4024F07F41401A50EA6E
:10073000052102D1180EA0EB146070BDA342DBD0DE
:1007400018BA21BA884201D9012070BD4FF0FF309C
:1007500070BD0AB9002070BD10F8013B11F8014BC3
:1007600063B1A3420AD1521E08D010F8013B11F820
:10077000014B1BB1A34201D1521EEDD1181B70BD1C
:10078000421E12F8013F002BFBD111F8013B002B58
:1007900002F8013BF9D1704710B5203AC0F00B8048
:1007A000B1E81850203AA0E81850B1E81850A0E875
:1007B0001850BFF4F5AF5FEA027C24BFB1E81850CF
:1007C000A0E8185044BF18C918C0BDE810405FEA3F
:1007D000827C24BF51F8043B40F8043B08BF7047BB
:1007E000D20728BF31F8023B48BF11F8012B28BFC0
:1007F00020F8023B48BF00F8012B70474FF0000281
:100800000429C0F0128010F0030C00F01B80CCF122
:10081000040CBCF1020F18BF00F8012BA8BF20F890
:10082000022BA1EB0C0100F00DB85FEAC17C24BFE4
:1008300000F8012B00F8012B48BF00F8012B70478E
:100840004FF0000200B5134694469646203922BF69
:10085000A0E80C50A0E80C50B1F12001BFF4F7AFB4
:10086000090728BFA0E80C5048BF0CC05DF804EB96
:10087000890028BF40F8042B08BF704748BF20F804
:10088000022B11F0804F18BF00F8012B704710B5F4
:10089000044610F0030F08BF11F0030F40F015805D
:1008A0004FF0013E121FC0F20E8051F8043BA3EB43
:1008B0000E0C2CEA030C1CEACE1C08BF40F8043BCB
:1008C000F0D0A1F1040102F10402521E08DB11F87C
:1008D000013B002B00F8013BF7D11146FFF78EFFDB
:1008E000204610BD7047704770472DE9F0470D4610
:1008F00099469246044600F124080168880604D50A
:10090000E06921F01001216000E00120A84201DD32
:10091000471B00E00027A1697A1902EB0900081AB9
:10092000A0612078C00602D42046AFF300800026E4
:1009300008E0D4E901211AF806009047206A401C1B
:10094000761C20624E45F4DB2078C0060AD520468E
:10095000AFF3008006E0D4E9012130209047206AFF
:10096000401C2062381EA7F10107F4DC07E0D4E93F
:10097000012118F805009047206A401C2062281EBB
:10098000A5F10105F3DC2046AFF3008020780006D6
:1009900002D50220BDE8F0870120FBE7074B70B5C8
:1009A0000D467B4400F011F80446284600F020F87C
:1009B00010B14FF0FF3070BD204670BD3B7D000090
:1009C00001694A1C02610878704700B58FB0CDE913
:1009D00001310021059105497944CDE90310114603
:1009E0006846FFF7F3FD0FB000BD0000E5FFFFFF15
:1009F000007B00F08000704710B542485421FFF79B
:100A00001FFF41485421FFF71BFF40485421FFF7C7
:100A100017FF3F493B483C4A3F4B08603D490A604D
:100A20003A491960531C0365481C1065012008658C
:100A30003B48344A39A1784400F008FA20B93848D4
:100A400078440A3800F0A7FA37482F4A35A178448D
:100A500000F0FCF920B9344878440A3800F09BFAD9
:100A600032482A4A2FA1784400F0F0F920B92F48E3
:100A700078440A3800F08FFA40232248DC00002135
:100A8000224600F0BFF920B125487844543800F0E0
:100A900082FA1D4822464023002100F0B3F920B11C
:100AA00021487844543800F076FA1848224610233A
:100AB000002100F0A7F9002806D01C487844BDE8C2
:100AC0001040563800F067BA10BD104870B5006D80
:100AD00020F001040B4800F02FFA0B4800F02CFA2C
:100AE0000A4800F029FA09E0206D20F001052046AF
:100AF00000F022FA204600F073F82C46002CF3D1C7
:100B000070BD0000884B0024DC4B0024304C0024D6
:100B1000F4000024F8000024FC000024720000000F
:100B200074A700007700000060A700004CA7000039
:100B30000EB5CDE90001FFF7B9FD0290694601202D
:100B4000ABBE0EBD08B5694600900220ABBE08BD25
:100B50001FB58DE8070069460520ABBE04B010BD87
:100B60001FB58DE80F0069460620ABBEF6E708B555
:100B7000694600900920ABBE08BD1CB5CDE9000157
:100B800069460A20ABBE1CBD704708B56946009097
:100B90000C20ABBE08BD754600F004FAAE46050059
:100BA0006946534620F00700854618B020B5FFF788
:100BB000DDFBBDE820404FF000064FF000074FF08E
:100BC00000084FF0000B21F00701AC46ACE8C0096B
:100BD000ACE8C009ACE8C009ACE8C0098D46704774
:100BE00070B50446051F00F0E3F90068002C14BF3F
:100BF000446870BD002C18BFAC423CBF20466468FE
:100C0000F8D301680A18AA4218BF456003D12A68C0
:100C100005461144016028684119A1421CBF6C605F
:100C200070BD6168696021680844286070BD2DE965
:100C3000F04705460C46C86820F4201040F48000B8
:100C4000C860800602D5084600F0FFFAE06841F26D
:100C500082014FF0FF390140022903D0204600F005
:100C60009DFAB5E000F42041B1F5004F0FD1C0036B
:100C700006D56168E06A884200D80846606006E0F0
:100C80002069E06260606069FFF77FFFA061A06893
:100C90000022EEB200280DDAE1688B050AD4C043C9
:100CA000A06041F490302260E0606068411C6160A7
:100CB0000670A5E0E0689046226040F40050E060D5
:100CC000206968BB6069FFF752FF012704F1240522
:100CD000A0B1A08910F4407F08D0E06900F0B3F91A
:100CE000206118B1E06840F4006016E0E76125611A
:100CF000E06820F4407040F480600EE0E06900F0AD
:100D0000A2F900282061F1D0E06840F4006010F4FE
:100D1000407FE06002D140F48070E0602069606054
:100D2000E06825696FF0010AC1051FD56168E06AB6
:100D3000884200D80846411B04D02246284600F0CD
:100D400037FAF0BBE068010203D5E562C4E9015857
:100D500054E0691CE1626160E16940F48030491E41
:100D6000C4E9021030462E70BDE8F087010202D5BA
:100D700000F480320AE06068411C61600670E0683F
:100D80000A2E40F48030E06006D00022E16A6068FC
:100D9000814203D90B4602E00122F7E70346A78907
:100DA0005B1B7F0503D4E7699F4200DDE2B181420E
:100DB00000D80146E5620F1AC4E90158002B09DD8D
:100DC00000E005E022461946284600F0F1F908B196
:100DD0004846C9E747B1A069E5626560C01BA061EC
:100DE000E06840F01000E060E068000208D561684B
:100DF000A069E562491B08446560A0615046B3E7FD
:100E00003046B1E770B5C468A50713D0650211D4A8
:100E1000B2F5807F09D0B2F5007F06D0B2F5806FC1
:100E200008D1012300F1240106E05D1E6FF07F462A
:100E3000B54201D3012070BD0161C361416024F45A
:100E400070611143C160002070BD00002DE9F041C8
:100E50000C4607461646104600F06EF82078611CD6
:100E600061280AD0722802D077283CD102E00125FF
:100E7000002405E00225042402E0082448F20205CB
:100E800011F8010B2B2806D0622809D011F8010CAB
:100E900074280AD00BE045F0030544F00204EFE7A4
:100EA00045F0040544F00104EAE744F01004384634
:100EB0002146FFF73DFE411C15D0002131617160D4
:100EC0004FF40071F560F1617061200704D5304680
:100ED0000222002100F0E6F8306D40F0010030659C
:100EE0003046BDE8F0810020FBE72DE9F0410D46DA
:100EF0000646104C206DC10704D0410804D020F0F4
:100F00000104F7E722460EE0542000F09CF80700A9
:100F10000ED0206D47F0010108435421206538466A
:100F2000FFF78EFC3A4629463046BDE8F0418DE792
:100F30000020D6E7884B00242DE9F04704464FF007
:100F400000094FF0FF37C568D4E90486A80707D029
:100F5000204600F057F93046FFF7F4FD002802DA8A
:100F60003846BDE8F087280502D54046FFF738FE31
:100F70004C212046FFF764FC206D20F00100206525
:100F80004846EEE710B50446AFF300802046BDE8C2
:100F90001040FFF7D7B910B500F07EF9BDE810405A
:100FA00000F074B900487047844C0024704700007A
:100FB000004870478C4C002470477047704770475A
:100FC00038B504460A4600206946AFF30080002881
:100FD00008BF38BD02460099204600F084F9012080
:100FE00038BD012000F0D3B9F8B5AFF30080054655
:100FF00000200C46102000BF0646A819A0420DD9BB
:10100000324669460020AFF30080070008BF00F0B9
:10101000BEF90098A04218BF0546C419FFF7C8FFE3
:1010200005600746F01D20F007004619284600F02D
:1010300053F9B44208BFF8BDA21B31463868BDE879
:10104000F84000F050B970B50646FFF7B1FF0568EB
:1010500006F10B0020F00704B4429CBF002070BDD5
:101060002B466A68BAB11068A04210D304F1080197
:1010700088423CBF5068586007D3516810194160DE
:101080001168091B016058601460101D70BD134683
:101090005268002AE7D121462846FFF791FF002831
:1010A000DED170BD2DE9F041044616460D46476974
:1010B000007B80072ED03846FFF759FD50BB3EB36A
:1010C000012E02D0022E25D104E0204600F025F9A1
:1010D00005441DE03846FFF758FDE168002841F05F
:1010E0001001E16005DA204600F058F80120BDE863
:1010F000F081C9030BD56268E16A914200D81146BC
:10110000A26911442269891A814200DD084605441A
:10111000002D01DA0220EAE7E16A6068E2688142B4
:1011200006D29103E06203D522F4003141F01002AF
:10113000A6690027AE4213DCE16A814201D90B4661
:1011400000E0034603EB060C2369ACEB030CAC4553
:1011500006DD814201D98C4600E084469C4505D1DC
:10116000A760276042F02000A5620DE0AD1BE66994
:10117000AE1B8142A66000D90846C01A281A20601A
:101180005819606022F0200003490840E060002008
:1011900084F84870ABE70000BFCFD7FFC16821F4E7
:1011A000001141F08001C160002181600160704741
:1011B0002DE9F047814614460E464FF0FF3832487D
:1011C000D5685769054209D03846A169FFF7D5FCB3
:1011D000002811DB2C48C0430540E5602B46324611
:1011E00049463846FFF7B4FCA16920F00042B21A24
:1011F00011440028A16103D02046FFF7CFFF4046ED
:10120000BDE8F08770B504460569C06A6168884228
:1012100000D80846E16821F42011E160C90312D525
:10122000A84208D02246411B2846FFF7C1FF10B153
:101230004FF0FF3070BD0020E562C4E90150E06866
:1012400020F48030E060002070BD10B50446C06816
:1012500020F02000E060A16AA06988420DD02046FD
:10126000FFF7D0FFE06820F4405040F01000E0604D
:10127000A06AA0612069E062606044F24001E06819
:101280008843E06010BD000010000200002801D07B
:1012900000F01CB87047000010B5014602A000F035
:1012A0005DF8012010BD0000534947525452454497
:1012B0003A2052656469726563743A2063616E27EF
:1012C00074206F70656E3A200000000001491820FC
:1012D000ABBEFEE72600020000210160C0E901105C
:1012E000704710207047034640688C46002818BF9E
:1012F00088423CBF03464068F8D3186818448842C7
:1013000007D00CF1030020F00700001D411A521A0B
:101310000146081D0A60FFF763BC10B50146C268AC
:10132000900703D0900607D5886A0AE000F03EF8DF
:1013300001210160881E10BD8B69486818440B6943
:10134000C01A91F848301BB191F84910401A10BDED
:101350001103FCD50028FADD401E10BD70B505460E
:101360000C460A2000E06D1C00F018F835B1287812
:101370000028F8D102E0641C00F010F814B12078C5
:101380000028F8D1BDE870400A2000F007B810B579
:1013900000F010F8BDE81040FFF778BF08B56946C7
:1013A0008DF800000320ABBE08BD00000048704768
:1013B000844C002410B5012805D0002103A0FFF7BC
:1013C000CDFF012010BD09A1F8E7000053494752A5
:1013D000544D454D3A204F7574206F662068656105
:1013E00070206D656D6F7279000000003A204865CD
:1013F0006170206D656D6F727920636F72727570A8
:101400007465640010B509F053FC002010BDFEE7C0
:1014100010B508F00BFB034800F09AFDBDE8104042
:1014200008F012BB7C070024014800F091BD0000C9
:10143000F4070024014800F08BBD00008C06002456
:10144000014800F085BD000004070024294A016816
:1014500091423AD0274A1832914236D0254A30324A
:10146000914232D0234A483291422ED0214A6032F2
:1014700091422AD01F4A7832914226D01D4A90329A
:10148000914222D01B4AA83291421ED01A4A914260
:101490001BD0194A1832914217D0174A3032914264
:1014A00013D0154A483291420FD0134A603291420C
:1014B0000BD0114A7832914207D00F4A90329142B4
:1014C00003D00D4AA832914211D1CAB21823103A62
:1014D000B2FBF3F26FF30901032A02F00703074A94
:1014E000D25CC26500D9091D81650846704721F0AC
:1014F000FF01F9E710000240100402404CB0000860
:1015000030B5224A012301689142CAB21BD01F4C58
:101510001434A14217D01D4C2834A14213D01B4CC7
:101520003C34A1420FD0194C5034A1420BD0174C7F
:101530006434A14207D0154C7834A14203D0134C37
:101540008C34A1420CD11421114C083AB2FBF1F1B8
:101550000F4A803201F01F0504EB8101AB4010E01F
:101560000C4D1824103A0D44B2FBF4F1A82D00D80C
:101570000831094A01F01F0402EB8101064AA34029
:101580008032603080E80E0030BD00000854025800
:1015900000580258F0FBFDBF0008024010B5027968
:1015A000531E072B2DD8174C0168A1421BD0154C98
:1015B0001434A14217D0134C2834A14213D0114C3B
:1015C0003C34A1420FD00F4C5034A1420BD00D4CF3
:1015D0006434A14207D00B4C7834A14203D0094CAB
:1015E0008C34A14203D10849074C443102E0074939
:1015F000064C443104EB8202C0E91B2101219940D1
:10160000416710BD08540258FC580258FC080240BB
:1016100010B583694FF0C074826A0146002053B14F
:10162000B3F5005F15D072B1012A0CD0022A0AD09E
:10163000032A09D104E01AB1012A06D0022A03D1F3
:10164000C96AC90100D5012010BDC96AA142FAD0FA
:1016500010BD002AF7D0012AF2D0022AF3D0032AC3
:10166000F3D010BD2DE9F04F804E804FDFF8FC9194
:101670001836DFF8F8A148370468856D0AF1300A9A
:10168000DFF8ECB14C45DFF8ECC1DFF8ECE16DD0F0
:10169000B4426BD0544569D0BC4267D0DFF8D081EA
:1016A000A8F11808444561D05C455FD064455DD021
:1016B00074455BD0DFF8C481444557D0DFF8BC8166
:1016C00008F11808444551D0DFF8B08108F130081E
:1016D00044454BD0DFF8A48108F14808444545D083
:1016E000DFF8988108F1600844453FD0DFF88C812D
:1016F00008F17808444539D0DFF8808108F1900876
:10170000444533D0DFF8748108F1A80844452DD052
:10171000DFF86C81444529D0DFF8648108F11408B2
:10172000444523D0DFF8588108F1280844451DD0EE
:10173000DFF84C8108F13C08444517D0DFF84081C0
:1017400008F15008444511D0DFF8348108F16408ED
:1017500044450BD0DFF8288108F17808444505D0CE
:10176000DFF81C8108F18C08444509D1D0E91948FB
:10177000C4F80480C46E1CB1D0E91C48C4F80480CD
:1017800004684C452ED0B4422CD054452AD0BC42DB
:1017900028D0374E183EB44224D05C4522D0644550
:1017A00020D074451ED0354EB4421BD0334E18366F
:1017B000B44217D0314E3036B44213D02F4E483693
:1017C000B4420FD02D4E6036B4420BD02B4E78363B
:1017D000B44207D0294E9036B44203D0274EA836E3
:1017E000B44215D190F85C603F2406F01F06B44067
:1017F000AC600468256825F4802525602EE09A6099
:101800000068C160BDE8F08F99600068C260F9E7C8
:101810001B4EB4421BD01A4E1436B44217D0184E89
:101820002836B44213D0164E3C36B4420FD0144E74
:101830005036B4420BD0124E6436B44207D0104E2C
:101840007836B44203D00E4E8C36B442DAD190F8DA
:101850005C60012406F01F06B4406C60046863609D
:101860008368402B0368CFD1C9E700001000024015
:1018700088000240A0000240B8000240100402406C
:1018800008540258204D214E05F01F048034803545
:101890007078012833D11C48B0F800111CA008F062
:1018A000E1F80020707018482146BFF34F8F1F4A9F
:1018B0001060203020390029FADCBFF34F8FBFF3CE
:1018C0006F8F11498022284608F066F90E4A20469B
:1018D000BFF34F8F15490C310A60203820320028A1
:1018E000FADCBFF34F8FBFF36F8F11488022294678
:1018F00004F002FA044980220D4804F037F901206F
:1019000008F0BFFDC4E7000004020024000000242A
:10191000BDD3CAD5B5BDB5C4CAFDBEDDB3A4B6C876
:10192000CEAA256420202020000000005CEF00E00B
:10193000D0040024704772B6FEE700000068064934
:10194000884201D1054870470549884201D10548C0
:10195000704700207047000000100140C848002474
:1019600000480040284A00242DE9F84F044601F0C1
:10197000BDFA00903CB194F83500022806D08021D1
:1019800061650020E4E00120BDE8F88FC74DC74E37
:10199000C649183520683036DFF81483DFF8149311
:1019A0008842DFF814A3DFF814B32ED0A8422CD05D
:1019B000B0422AD0404528D0484526D0504524D0B2
:1019C000584522D0BD4A183290421ED0BC4A90429F
:1019D0001BD0BB4A1832904217D0B94A30329042DD
:1019E00013D0B74A483290420FD0B54A6032904285
:1019F0000BD0B34A7832904207D0B14A903290422D
:101A000003D0AF4AA832904209D1026822F01E02E8
:101A100002602068426922F08002426103E00268AD
:101A200022F00E02026027688F4238464DD0A8424D
:101A30004BD0B04249D0404547D0484545D05045AD
:101A400043D0584541D09D4A183290423DD09C4ADF
:101A500090423AD09A4A1832904236D0984A303260
:101A6000904232D0964A483290422ED0944A603208
:101A700090422AD0924A7832904226D0904A9032B0
:101A8000904222D08E4AA83290421ED08D4A904277
:101A90001BD08C4A1432904217D08A4A2832904286
:101AA00013D0884A3C3290420FD0864A503290423E
:101AB0000BD0844A6432904207D0824A78329042F6
:101AC00003D0804A8C32974204D1206E026822F4FF
:101AD0008072026075492068884228D0A84226D0CA
:101AE000B04224D0404522D0484520D050451ED099
:101AF00058451CD071491831884218D07049884225
:101B000015D06F491831884211D06D493031884263
:101B10000DD06B494831884209D06949603188420B
:101B200005D067497831884201D065499031016814
:101B300021F0010101600EE001F0D8F90099401A8E
:101B4000052808D9202262650321002084F8351079
:101B500084F8340017E73868C007EDD1534A0121F3
:101B6000206890422ED0A8422CD0B0422AD04045C6
:101B700028D0484526D0504524D0584522D04F4B38
:101B8000183398421ED04E4B98421BD04C4B183302
:101B9000984217D04A4B3033984213D0484B4833C1
:101BA00098420FD0464B603398420BD0444B783369
:101BB000984207D0424B9033984203D0404BA83311
:101BC000984208D194F85C703F23A06D07F01F077E
:101BD000BB40836007E094F85C30A06D03F01F0306
:101BE00001FA03F34360206890424DD0A8424BD0E5
:101BF000B04249D0404547D0484545D0504543D0F4
:101C0000584541D02D4A183290423DD02C4A90423E
:101C10003AD02B4A1832904236D0294A303290427C
:101C200032D0274A483290422ED0254A6032904224
:101C30002AD0234A7832904226D0214A90329042CC
:101C400022D01F4AA83290421ED01E4A90421BD07A
:101C50001C4A1432904217D01A4A2832904213D0AC
:101C6000184A3C3290420FD0164A503290420BD064
:101C7000144A6432904207D0124A7832904203D01C
:101C8000104A8C3290420BD1D4E919024260E06EC6
:101C900030B1026822F480720260D4E91C02426012
:101CA000002084F8351084F834006DE610000240FE
:101CB000580002407000024088000240A00002402C
:101CC00010040240085402582DE9F05F28B190F842
:101CD0003510022904D0802141650120BDE8F09F24
:101CE000904C904B0168183C18338E4ADFF83C92B8
:101CF000A1428D4CDFF838E28E4FDFF83CB2DFF8BE
:101D00003CA28F4D8F4E31D091422FD099422DD091
:101D1000A1422BD0494529D0714527D0B94225D0C1
:101D2000DFF810C20CF1180C61451FD0DFF808C2B3
:101D3000ACF1600C614519D0DFF8FCC1ACF1480C86
:101D4000614513D0DFF8F0C1ACF1300C61450DD026
:101D5000DFF8E4C1ACF1180C614507D0594505D056
:101D6000514503D0A94201D0B1422CD1DFF8B4C112
:101D70004FF0040880F83580ACF1180C61451DD097
:101D800091421BD0994219D0A14217D0494515D094
:101D9000714513D0B94211D06648183081420DD038
:101DA00065486038814209D063484838814205D08F
:101DB00061483038814201D05F481838086820F007
:101DC00001000860ABE0D1F800C02CF00E08DFF88D
:101DD00054C1C1F80080ACF1180C0168614527D0EE
:101DE000914225D0994223D0A14221D049451FD00C
:101DF00071451DD0B9421BD0DFF838C10CF1180C69
:101E0000614515D0DFF830C1ACF1600C61450FD0F1
:101E1000DFF824C1ACF1480C614509D0DFF818C1E6
:101E2000ACF1300C614503D0DFF80CC1ACF1180CFB
:101E3000D1F800C02CF0010CC1F800C0DFF8E4803C
:101E40004FF0010C0168A8F11808414546D09142B5
:101E500044D0994242D0A14240D049453ED071453C
:101E60003CD0B9423AD0334A1832914236D0324A45
:101E7000603A914232D0304A483A91422ED02E4AAE
:101E8000303A91422AD02C4A183A914226D05945EC
:101E900024D0514522D0A94220D0B1421ED02A4A96
:101EA00091421BD0284A1432914217D0264A283238
:101EB000914213D0244A3C3291420FD0224A5032F0
:101EC00091420BD0204A6432914207D01E4A7832A8
:101ED000914203D01C4A8C32914218D1016E0A689B
:101EE00022F480720A6090F85C20816D02F01F027B
:101EF0000CFA02F24A60D0E919124A60C16E31B19F
:101F00000A6822F480720A60D0E91C124A6000223A
:101F1000016D80F835C080F8342001B18847002079
:101F2000DCE6000028000240580002407000024039
:101F300088000240A0000240700402408804024071
:101F4000A0040240B804024008540258406D704793
:101F50002DE9FC5F0446F74E0020DFF8D88300909F
:101F60004FF41652F44808F11808A56DDFF8C49331
:101F7000DFF8C0A3016809F1300920680AF1480AB6
:101F8000B1FBF2F1B04201912F68D5F800C0DFF843
:101F9000ACB335D04146884232D0484530D0504568
:101FA0002ED058452CD0E5491831884228D0E34935
:101FB0003031884224D0E1494831884220D0E0497C
:101FC00088421DD0DE491831884219D0DC493031B1
:101FD000884215D0DA494831884211D0DFF860E3F1
:101FE0000EF1600E70450BD0D54A7832904207D082
:101FF000D34B9033984203D0D149A83188427DD148
:1020000094F85C20082102F01F0201FA02F23A4221
:102010004AD0B04232D0404530D048452ED050450D
:102020002CD058452AD0C54A1832904226D0C34AEF
:102030003032904222D0C14A483290421ED0C04A2B
:1020400090421BD0BE4A1832904217D0BC4A303260
:10205000904213D0BA4A483290420FD0B84A603208
:1020600090420BD0B64A7832904207D0B44A9032B0
:10207000904203D0B24AA832904203D1026802F0E3
:10208000040202E0026802F008026AB1026822F06B
:102090000402026094F85C0000F01F008140A96017
:1020A000606D40F00100606594F85C00012100F073
:1020B0001F008140394240D02068B04234D04045B2
:1020C00032D0484530D050452ED058452CD09B4A70
:1020D0001832904228D0994A3032904224D0974A00
:1020E0004832904220D0964A90421DD0944A1832ED
:1020F000904219D0924A3032904200E0AFE113D0C2
:102100008F4A483290420FD08D4A603290420BD0B5
:102110008B4A7832904207D0894A9032904203D05D
:10212000874AA83290427DD1406910F0800F04D0D8
:10213000A960606D40F00200606594F85C000421C5
:1021400000F01F00814039423ED02068B04232D0BA
:10215000404530D048452ED050452CD058452AD047
:10216000764A1832904226D0744A3032904222D0B9
:10217000724A483290421ED0714A90421BD0704A37
:102180001832904217D06E4A3032904213D06C4AC7
:10219000483290420FD06A4A603290420BD0684A6F
:1021A0007832904207D0664A9032904203D0644A17
:1021B000A83290424ED1006810F0020F04D0A960FE
:1021C000606D40F00400606594F85C00102100F040
:1021D0001F008140394258D02068B04234D0404579
:1021E00032D0484530D050452ED058452CD0534A97
:1021F0001832904228D0514A3032904224D04F4A6F
:102200004832904220D04E4A90421DD04C4A18325B
:10221000904219D04A4A3032904215D0484A48324A
:10222000904200E014E00FD0454A603290420BD05B
:10223000434A7832904207D0414A9032904203D0CC
:102240003F4AA832904207D1006800F0080006E03B
:10225000006872E70068B7E7006800F00400A0B10A
:10226000A96020680168490304D50068000308D507
:10227000A16C07E00168C90503D4016821F00801D9
:102280000160216C09B12046884794F85C00202148
:1022900000F01F008140394279D02068B04232D02E
:1022A000404530D048452ED050452CD058452AD0F6
:1022B000224A1832904226D0204A3032904222D010
:1022C0001E4A483290421ED01D4A90421BD01C4AE2
:1022D0001832904217D01A4A3032904213D0184A1E
:1022E000483290420FD0164A603290420BD0144AC6
:1022F0007832904207D0124A9032904203D0104A6E
:10230000A832904203D1006800F0100002E000689B
:1023100000F00200B0B3A96094F8350004282068EA
:1023200001680FD049037ED5006800032BD4616C8F
:102330002AE0000010000240540000247000024017
:102340001004024021F0160101602068416921F06B
:1023500080014161206C08B9A06C20B1206801683F
:1023600021F00801016094F85C303F21012003F066
:102370001F0300229940A96084F8350084F83420B6
:10238000216D65E003E0E16B09B120468847606D8F
:1023900000287DD0606DC00759D02068042184F8E2
:1023A0003510B0422BD0404529D0484527D0504564
:1023B00025D0584523D09D49884220D09B491831CB
:1023C00088421CD099493031884218D098498842B7
:1023D00015D097491831884211D09549303188423B
:1023E0000DD093494831884209D0914960318842E3
:1023F00005D08F497831884201D08D4990310168EC
:1024000021F00101016020680099019A491C0091A6
:10241000914202D80168C907F6D10068C00710D000
:1024200003200FE0FFE70168C905ACD40368012170
:10243000002223F01003036084F8351084F8342060
:10244000A1E7012084F83500002084F83400E16C15
:1024500000291DD002B02046BDE8F05F084775494D
:1024600088421DD073491431884219D071492831EE
:10247000884215D06F493C31884211D06D495031A6
:1024800088420DD06B496431884209D0694900E027
:1024900084E07831884203D066498C3188427DD10E
:1024A00094F85C800427016808F01F0807FA08F711
:1024B00017EA0C0F009746D04F0744D500980F0439
:1024C000686003D5C8033CD4A16CC1E7880638D442
:1024D0002068B0422DD055496039884229D04845FE
:1024E00027D0504525D0584523D05049884220D088
:1024F0004E49183188421CD04C493031884218D09E
:102500004B49884215D04A491831884211D0484970
:10251000303188420DD046494831884209D0704553
:1025200007D0904205D0984203D04149A831884253
:1025300003D1016821F0080102E0016821F00401E3
:102540000160216C84E7022707FA08F717EA0C0FED
:1025500000974ED08F074CD500980F04686003D5C4
:10256000C80344D4616C73E7880640D42068B04245
:102570002FD02E49603988422BD0484529D050456C
:1025800027D0584525D02949884222D027491831DB
:1025900088421ED025493031884200E044E018D0FE
:1025A0002349884215D022491831884211D0204948
:1025B000303188420DD01E494831884209D07045DB
:1025C00007D0904205D0984203D01949A8318842DB
:1025D00003D1016821F0140102E0016821F00A0131
:1025E0000160012184F83510002084F83400E16B8B
:1025F0002EE7082202FA08F212EA0C0F14D009079B
:1026000012D5016821F00E01016094F85C100120E0
:10261000002201F01F0100FA01F16960606584F891
:10262000350084F8342012E7BDE8FC9F88000240A2
:1026300010040240085402582DE9F05F044600F0EF
:1026400055FC002C07467DD0E34E022120684FF058
:102650000308DFF888934FF00005DFF884A3B04249
:10266000DFF880B334D0DC4A1832904230D048458D
:102670002ED050452CD058452AD0DA4A18329042F4
:1026800026D0D84A3032904222D0D64A48329042A0
:102690001ED0D54A90421BD0D34A1832904217D050
:1026A000D14A3032904213D0CF4A483290420FD0B4
:1026B000CD4A603290420BD0CB4A7832904207D05C
:1026C000C94A9032904203D0C74AA83290427DD185
:1026D00084F83510B04284F834502ED0BE491831F9
:1026E00088422AD0484528D0504526D0584524D085
:1026F000BC491831884220D0BA49303188421CD0B8
:10270000B8494831884218D0B749884215D0B649EF
:102710001831884211D0B449303188420DD0B249C5
:102720004831884209D0B0496031884205D0AE496D
:102730007831884201D0AC499031016821F0010123
:10274000016008E027E100BF00F0D0FBC01B0528B6
:1027500001D920211CE120680068C007F4D104F1F0
:1027600008002168D4E9053C8E4685C809681043F5
:10277000D4E907281F43636A38439C4F40EA0C00A2
:102780001043394040EA0800042B40EA010003D11D
:10279000D4E90B1211430843954909686FF30F01FF
:1027A000B1F1005F0FD36168A1F12902052A08D9B0
:1027B000163A032A05D9083A012A02D94F390329C2
:1027C00001D840F48010CEF8000000E023E020683B
:1027D000676A4069042F20F0070047EA00070DD11F
:1027E000D4E90A01074349B12046FEF711FF28B199
:1027F00040206065012184F83510CCE020684761F5
:102800002046FEF723FE94F85C203F2102F01F02D1
:102810009140816054E0774A90421BD0754B14334D
:10282000984217D0734B2833984213D0714B3C33E6
:1028300098420FD06F4B503398420BD06D4B64339E
:10284000984207D06B4B7833984203D0694B8C3356
:1028500098427DD184F8351084F83450664B016875
:10286000A26801EA030E402A73D0802A72D00022A7
:10287000D4E90378D4E9053142EAD70242EAD8081C
:102880005C4AD4E9077C48EAD30848EAD10141EA26
:10289000D701524241EA1C11142341EA0E010160A2
:1028A00020681044B0FBF3F08000E0652046FEF79E
:1028B000CDFD94F85C20012102F01F02914041609F
:1028C0002068B04257D044491831884253D0484517
:1028D00051D050454FD058454DD0424918318842CB
:1028E00049D040493031884245D03E49483188423C
:1028F00041D03D4988423ED03B49183188423AD0C8
:1029000039493031884236D037494831884232D04F
:102910003549603188422ED03349783188422AD0F7
:1029200031499031884226D02F49A831884222D09F
:10293000304988421FD02F49143188421BD02D497D
:102940002831884217D02B493C31884213D002E00D
:102950001DE017E018E02749503188420BD0254987
:102960006431884207D023497831884203D0214915
:102970008C31884229D12046FEF7C2FDA06880280C
:102980000CD00CE0102273E74FF4804270E7402136
:10299000616584F835800120BDE8F09F6560216E97
:1029A00020790860D4E9190141606068401E072859
:1029B00008D82046FEF7F2FDE06E0560D4E91C0160
:1029C000416002E0E566256765670120656584F87A
:1029D00035000020E0E70000100002404000024007
:1029E0005800024070000240100402403F8010FE78
:1029F0000010005C085402580F00FEFF2DE9F84F4C
:102A000004008C464FF00000009014D094F834007D
:102A1000012812D094F835500120002184F83400A8
:102A2000012D0CD0C00260650120009084F83410A4
:102A30000098BDE8F88F0120FBE70220F9E78C4DF4
:102A40000226206884F83560A8428A4D61658A4E66
:102A50008A4FDFF82C82DFF82C92DFF82CA2DFF807
:102A60002CB226D0A84224D0B04222D0B84220D0E6
:102A700040451ED048451CD050451AD0584518D066
:102A80008349884215D082491831884211D0804943
:102A9000303188420DD07E494831884209D07C4986
:102AA0006031884205D07A497831884201D078492E
:102AB0009031016821F00101016061462046FEF776
:102AC000D1FD6B49206888422CD0A8422AD0B04260
:102AD00028D0B84226D0404524D0484522D0504581
:102AE00020D058451ED06A4A90421BD0684A1832FE
:102AF000904217D0664A3032904213D0644A48322E
:102B000090420FD0624A603290420BD0604A7832D5
:102B1000904207D05E4A9032904203D05C4AA8327D
:102B200090420CD1026822F01E0242F016020260AE
:102B3000206C88B12068026842F008020BE002684D
:102B400022F00E0242F00A020260206C20B12068DE
:102B5000026842F004020260206888424BD0A8421A
:102B600049D0B04247D0B84245D0404543D048450F
:102B700041D050453FD058453DD0454A90423AD08B
:102B8000434A1832904236D0414A3032904232D0D5
:102B90003F4A483290422ED03D4A603290422AD07D
:102BA0003B4A7832904226D0394A9032904222D025
:102BB000374AA83290421ED0364A90421BD0354A3E
:102BC0001432904217D0334A2832904213D0314AFF
:102BD0003C3290420FD02F4A503290420BD02D4AB7
:102BE0006432904207D02B4A7832904203D0294A6F
:102BF0008C3290420DD1206E0268D20303D5026858
:102C000042F480720260E06E18B1026842F4807291
:102C100002602068884226D0A84224D0B04222D048
:102C2000B84220D040451ED048451CD050451AD04F
:102C3000584518D01649884215D015491831884290
:102C400011D01349303188420DD0114948318842A2
:102C500009D00F496031884205D00D49783188424A
:102C600001D00B499031016841F001010160DFE6BC
:102C7000100002402800024040000240580002407C
:102C80007000024088000240A0000240B8000240EC
:102C900010040240085402582DE9F84F03247D4DDA
:102CA00000234FF001094FF0B04B4FF00F0AE9E05D
:102CB00009FA03F73A4076D00E7906F00306012EA2
:102CC00001D0022E18D1D0F808C04FEA430ECE68CA
:102CD00004FA0EF82CEA080C06FA0EF646EA0C0680
:102CE0008660D0F804C00E792CEA070CC6F30016F3
:102CF0009E4046EA0C0646600E79F643B6070BD0B6
:102D0000C6684FEA43088F6804FA08FC26EA0C06F6
:102D100007FA08F73743C7600E7906F00306022E5C
:102D200012D1DE080F694FEA437C00EB8606B646F7
:102D3000366A4FEADC6C0AFA0CF807FA0CF726EA56
:102D400008063743CEF820700F7906684FEA43082B
:102D500007F0030704FA08FC07FA08F726EA0C064E
:102D6000374307604E6816F4403F1CD04A4E376820
:102D700047F00207376036689F0706F002060096A4
:102D800023F0030606F1B046B6463F0FD6F80864B6
:102D9000DFF808810AFA07FC404526EA0C0603D151
:102DA0004FF0000C41E06CE0DFF8F4C0604502D168
:102DB0004FF0010C39E0DFF8ECC0604502D14FF074
:102DC000020C32E0DFF8E0C0604502D14FF0030CA6
:102DD0002BE0DFF8D8C0604502D14FF0040C24E0AE
:102DE000DFF8CCC0604502D14FF0050C1DE0DFF8E4
:102DF000C4C0604502D14FF0060C16E0DFF8B8C041
:102E0000604502D14FF0070C0FE0DFF8B0C060451D
:102E100002D14FF0080C08E0DFF8A4C0604502D1F1
:102E20004FF0090C01E04FF00A0C0CFA07FC4CEAD9
:102E3000060CCEF808C44F68DBF80060FF0226EAF3
:102E4000020600D516435F46CBF80060D1F804C0F7
:102E5000DBF804605FEA8C2C26EA020600D51643F4
:102E60007E606E684F6826EA0206BF0300D51643EF
:102E70006E602E684F6826EA0206FF0300D51643EF
:102E80002E605B1C0A6832FA03F67FF411AFBDE8CE
:102E9000F88F000080000058F444025800000258E7
:102EA0000004025800080258000C02580010025892
:102EB0000014025800180258001C02580020025842
:102EC00000240258426921EA02030A4043EA02410F
:102ED000816170470AB1816170470904FBE7000016
:102EE00001480068000C70470010005C01488068D1
:102EF0007047000048000024032010B500F0D4F80B
:102F000001F0AEF80F4A104914681368C4F30322A5
:102F100003F00F038A5CC95C02F01F0201F01F017D
:102F2000D0400A4A20FA01F11160094908600020E6
:102F300000F010F808B1012010BD00F079F8002071
:102F400010BD0000184402587CB00008580000244E
:102F50005400002470B50D4D04462878A0B14FF4FC
:102F60007A71B1FBF0F00A490968B1FBF0F001F0A9
:102F7000D4FB48B9102C07D200222146501E00F085
:102F800073F800206C6070BD012070BD4800002403
:102F900054000024F0B5154C4378211D0A1D236010
:102FA0000378F3B143680B60057BC67A817A437B73
:102FB0002D07847B45EA0665C77B90F809C0067A31
:102FC00090F800E045EAC14040EA834040EA4440CE
:102FD00040EA074040EA0C2040EA460040EA0E0082
:102FE00001E0002008601060F0BD000098ED00E0F6
:102FF000BFF35F8F044800210368034A23F4803342
:10300000036070321160704724ED00E0074A40F021
:103010000100064970321060086840F48030086092
:10302000BFF34F8FBFF36F8F7047000024ED00E0B8
:10303000054808B5016841F002010160006800F030
:103040000200009008BD0000F4440258002809DB8B
:10305000410900F01F028900012001F1E0219040A8
:10306000C1F80001704700000E4BF0B41B680D461C
:10307000C3F30223C3F10706042E00D90426191D49
:10308000072901D2002300E0DB1E012404FA06F127
:103090009C40491E2940641E994014402143F0BCC5
:1030A00004F0A9BF0CED00E0064900F0070210B5DE
:1030B0004FF6FF040868044B204040EA0220184302
:1030C000086010BD0CED00E00000FA05134970B572
:1030D0000A68D243520705D5096801F00701814209
:1030E00013D118E00A6822F0070202430A60FFF7D2
:1030F000FDFE0A4D4FF47A760446083D07E000BF16
:10310000FFF7F4FE001BB04201D9012070BD286812
:10311000C0438004F4D4002070BD00000C48025865
:1031200010B500F057FF05490968054AC1F30211BF
:10313000515C01F01F01C84010BD0000204402583E
:103140007CB00008494930B5484C0B1D0A6814345E
:1031500009681D68246802F00303C5F30012C1F377
:103160000531C4F3CC04002914FB02F200EE102A4E
:10317000F8EE400A75D03F4A9FED3D1AB7EE000ABF
:103180006BB1DFED3D1A012B01D0022B64D002EEB2
:10319000101A1168F8EE422A81EEA22A21E0334C7F
:1031A000283C23689B0612D5344B246801EE901A04
:1031B0001168C4F3C104F8EE612AE34001EE903ACD
:1031C000C1F30801F8EE611A81EEA22A0BE001EECC
:1031D000901ADFED2B2A00BFF8EE611A116882EE1B
:1031E000A12AC1F3080101EE901A1168F8EE611AE4
:1031F00040EE811A71EE800A62EE200AC1F3462188
:1032000001EE101AB8EE411A31EE001AC0EE811A22
:10321000BCEEE11A80ED001A1168C1F3064101EE1F
:10322000101AB8EE411A31EE001AC0EE811ABCEE47
:10323000E11A80ED011A1168C1F3066101EE101A5E
:10324000B8EE411A31EE000A80EE801ABCEEC10AD7
:1032500080ED020A30BD04E001EE901ADFED092A8C
:10326000BAE70021016041608160F3E72844025819
:1032700000000039384402580024744A0090D003FA
:103280000024744C20BCBE4B494930B5484C0B1D42
:103290000A681C3409681D68246802F00303C5F33A
:1032A0000022C1F30551C4F3CC04002914FB02F23F
:1032B00000EE102AF8EE400A75D03F4A9FED3D1A05
:1032C000B7EE000A6BB1DFED3D1A012B01D0022BE6
:1032D00064D002EE101A1168F8EE422A81EEA22A9A
:1032E00021E0334C283C23689B0612D5344B2468DC
:1032F00001EE901A1168C4F3C104F8EE612AE340AC
:1033000001EE903AC1F30801F8EE611A81EEA22AAB
:103310000BE001EE901ADFED2B2A00BFF8EE611AE8
:10332000116882EEA12AC1F3080101EE901A11681A
:10333000F8EE611A40EE811A71EE800A62EE200A00
:10334000C1F3462101EE101AB8EE411A31EE001A0F
:10335000C0EE811ABCEEE11A80ED001A1168C1F3CB
:10336000064101EE101AB8EE411A31EE001AC0EE15
:10337000811ABCEEE11A80ED011A1168C1F30661F1
:1033800001EE101AB8EE411A31EE000A80EE801AF2
:10339000BCEEC10A80ED020A30BD04E001EE901AD5
:1033A000DFED092ABAE70021016041608160F3E79F
:1033B0002844025800000039404402580024744A4E
:1033C0000090D0030024744C20BCBE4B2DE9FE4F6E
:1033D0000546DFF8E48350F8081B0024F64FC94384
:1033E000019005F12800264608F124080090080104
:1033F0001DD4A86E50B1B0F5801F0CD0B0F5001FE1
:103400000ED0B0F5401F1ED001240FE0386840F404
:103410000030386017E00198022102F0F7FF03E066
:103420000098022103F082F804000CD02646288878
:10343000C043C00523D4A86D05281ED2DFE800F0E4
:103440000C11161B1B00AA6ED8F8001021F44011B5
:103450001143C8F80010EAE7386840F400303860DB
:1034600009E00198002102F0D1FF03E0009800215B
:1034700003F05CF8044674B100E001242646288875
:10348000C043800528D4E86D80281ED00CDC90B1A4
:1034900040280ED114E0AA6DD8F8001021F00701E1
:1034A0001143C8F80010EAE7C02813D0B0F5807FB8
:1034B00010D001240FE0386840F40030386009E093
:1034C0000198002102F0A2FF03E00098002103F020
:1034D0002DF804469CB126462888DFF8DC92C043CC
:1034E00009F12C0940052CD4D5F8A800B0F5800FBF
:1034F00020D00DDCA0B1B0F5001F0FD115E0EA6DB2
:10350000D8F8001021F4E0711143C8F80010E3E787
:10351000B0F5C00F13D0B0F5000F10D001240FE0AC
:10352000386840F40030386009E00198002102F06A
:103530006DFF03E00098002102F0F8FF04467CB123
:1035400026462888C04300052DD4D5F8AC00B0F13C
:10355000007F21D00EDCA8B1B0F1807F10D116E041
:10356000D5F8A820D9F8001021F460011143C9F85A
:103570000010E6E7B0F1407F13D0B0F1806F10D0BB
:1035800001240FE0386840F40030386009E0019809
:10359000002102F03BFF03E00098002102F0C6FF8B
:1035A000044674B126462868C04380011FD4E86CE5
:1035B000D8B110280FD0202812D0302815D00124DF
:1035C00014E0D5F8AC20D9F8001021F0E0611143E7
:1035D000C9F80010E7E7386840F40030386004E0CC
:1035E0000198022102F012FF044674B12646288891
:1035F000C043C0042BD4286EB0F5005F20D00DDC92
:10360000A0B1B0F5805F0FD115E06B48EA6C2030B7
:10361000016821F0300111430160E8E7B0F5405F37
:1036200013D0B0F5804F10D001240FE0386840F47B
:103630000030386009E00198002102F0E7FE03E065
:103640000098002102F072FF04468CB126462888BB
:10365000C043800429D4686EB0F5403F23D010DC0D
:1036600008B3B0F5803F14D0B0F5003F0FD115E09E
:103670002A6ED8F8001021F4E0411143C8F8001078
:10368000E5E7B0F5802F0ED0B0F5A02F0BD00124C8
:103690000AE00198012102F0B9FE03E0009801213F
:1036A00002F044FF044694B126462888C0434004F3
:1036B0002AD4D5F8B000B0F1405F23D010DC08B3B5
:1036C000B0F1805F14D0B0F1005F0FD115E06A6EE9
:1036D000D8F8001021F4E0211143C8F80010E4E705
:1036E000B0F1804F0ED0B0F1A04F0BD001240AE012
:1036F0000198012102F08AFE03E00098012102F006
:1037000015FF044674B126462888C04300041FD420
:10371000286FD8B1B0F1805F0ED0B0F1005F10D04B
:10372000012414E0D5F8B020D9F8001021F0E041D0
:103730001143C9F80010E7E7386840F400303860FA
:1037400004E00198012102F061FE044674B12646AE
:103750002868C043C0011ED4A86CD0B101280ED087
:10376000022811D0032814D0012413E02A6FD8F8BE
:10377000001021F040511143C8F80010E8E7386804
:1037800040F40030386004E00198022102F03EFE6F
:103790000446ACB126462868DFF81CB0C043ABF144
:1037A0001C0B400252D40548016841F4807101604D
:1037B000FFF79CFB824611E02C4402580048025857
:1037C000FA48AA6C016821F0030111430160E2E7A5
:1037D000FFF78CFBA0EB0A00642835D8F44800689A
:1037E000C005F5D58CBBDFF8C4A3B5F8B4100AF159
:1037F000240ADAF8000001F4407100F440708842B5
:1038000011D0DAF80010DAF8002021F4407142F407
:103810008032CAF80020DAF8002022F48032CAF898
:103820000020CAF80010D5F8B400B0F5807F1AD196
:10383000FFF75CFB029012E0FFF758FB0299411A78
:1038400041F2883081420AD9032426462878DFF8DD
:103850005CA3C0430AF1080AC00721D03CE0DAF8B3
:1038600000008007E8D5D5F8B410C1F30120032883
:1038700058460DD0016821F47C510160B5F8B420A0
:10388000DAF80010C2F30B021143CAF80010DDE7AA
:10389000C84A036802EA111223F47C511143ECE791
:1038A000E86F182816D005DCA0B1082808D0102829
:1038B00004D10AE020280DD028280BD001240AE0EA
:1038C0000198012102F0A2FD03E00098012102F01D
:1038D0002DFE044664B126462878C04380071ED4D6
:1038E000A86F062819D2DFE800F0160C111616167C
:1038F000EA6FDAF8001021F038011143CAF800101D
:10390000EAE70198012102F081FD03E0009801211E
:1039100002F00CFE04467CB100E001242646287823
:10392000C04340071FD4D5F89400062819D2DFE819
:1039300000F0160C11161616AA6FDAF8001021F016
:1039400007011143CAF80010E9E70198012102F0CC
:103950005DFD03E00098012102F0E8FD0446A4B1FA
:1039600000E0012426462878C04380062BD4D5F8F1
:103970009000B0F1405F24D011DC10B3B0F1805F53
:1039800015D0B0F1005F10D116E0D5F89420D9F829
:10399000001021F007011143C9F80010E3E7B0F16E
:1039A000804F0ED0B0F1A04F0BD001240AE0019857
:1039B000002102F02BFD03E00098022102F0B6FD89
:1039C000044694B126462878C04340062BD4D5F847
:1039D0009C00B0F5406F24D011DC10B3B0F5806FBF
:1039E00015D0B0F5006F10D116E0D5F89020DAF8B8
:1039F000001021F0E0411143CAF80010E3E7B0F5F0
:103A0000805F0ED0B0F5A05F0BD001240AE00198D2
:103A1000002102F0FBFC03E00098022102F086FD89
:103A2000044694B126462878C04300062BD4D5F826
:103A3000A000B0F5C04F24D011DC10B3B0F5005F8A
:103A400015D0B0F5804F10D116E0D5F89C20D9F8EC
:103A5000001021F4E0511143C9F80010E3E7B0F57C
:103A6000004F0ED0B0F5204F0BD001240AE0019892
:103A7000002102F0CBFC03E00098022102F056FD89
:103A8000044654B126462878C04300071ED4D5F812
:103A90008400B0F5805F0AD00FE0D5F8A020D9F8F7
:103AA000001021F460411143C9F80010EBE70098C1
:103AB000022102F03BFD00B10126D5F88420DAF89E
:103AC000001021F440511143CAF800102878C04377
:103AD000C00613D4D5F89800B0F5807F05D10098C2
:103AE000022102F023FD00B10126D5F89820D9F873
:103AF000001021F440711143C9F800102868C04338
:103B0000000316D4D5F8A40038B1B0F5803F09D031
:103B1000B0F5003F0BD001240AE00198002102F02B
:103B200075FC03E00098022102F000FD04468CB110
:103B300026462868C043400322D4D5F88800B0F553
:103B4000801F11D0B0F5001F13D0B0F5401F15D065
:103B5000012414E0D5F8A420D9F8001021F4403154
:103B60001143C9F80010E4E7386840F400303860C9
:103B700004E00098012102F0D9FC04465CB126461D
:103B80002868C043C00323D4286DA8B1B0F5803F96
:103B900017D001241BE0D5F88820DAF8001021F4B2
:103BA00040111143CAF80010EAE700004C440258E3
:103BB00000480258CFFFFF00386840F400303860FA
:103BC00004E00198022102F021FC0446E4B12646FB
:103BD0002868C043800005D40098022102F0A6FCAA
:103BE00000B101262868C04380031BD4D5F88000AB
:103BF000B0B1B0F5807F0FD0B0F5007F10D0B0F538
:103C0000407F0DD001240CE05A482A6D016821F450
:103C1000803111430160DBE7386840F400303860E0
:103C2000ECB326462868C043C00207D46A6FD8F8B0
:103C3000001021F000411143C8F800102868C0436B
:103C4000C00008D4D5F8B820DBF8001021F480417A
:103C50001143CBF800102868C043800207D4EA6EF5
:103C6000D8F8001021F080711143C8F800102868BE
:103C7000C04340000CD4DBF8001021F40041CBF825
:103C80000010DBF80010D5F8BC201143CBF8001071
:103C90002868C04308D437486A6D016800E018E01E
:103CA00021F04051114301602868C043000208D44C
:103CB000D5F88C20DAF8001021F440011143CAF83D
:103CC000001028790024C04300F0010020430AD0EE
:103CD0000FE0D5F88020DAF8001021F4407111438C
:103CE000CAF800109EE70198002102F08FFB00B196
:103CF00006462879C04300F00200204305D1019810
:103D0000012102F083FB00B106462879C04300F090
:103D10000400204305D10198022102F077FB00B195
:103D200006462879C04300F00800204305D10098DA
:103D3000002102F0FBFB00B106462879C04300F0E9
:103D40001000204305D10098012102F0EFFB00B1E3
:103D500006462879C04300F02000044304D10098AF
:103D6000022102F0E3FB00B916B10120BDE8FE8F8D
:103D70000020FBE74C4402582DE9F05F04000F4699
:103D80007ED0DFF83882D8F8000000F00F00B8428B
:103D90000CD2D8F8001021F00F013943C8F80010F8
:103DA000D8F8000000F00F00B84269D12078844DA7
:103DB00040070AD52069296801F07001884204D9BA
:103DC000296821F070010143296020787C4E361D5E
:103DD00000070AD56069316801F07001884204D992
:103DE000316821F07001014331602078C0060AD5A6
:103DF000A069316801F4E061884204D9316821F496
:103E0000E061014331602078DFF8B4B180060BF146
:103E1000080B0CD5E1695846DBF8002002F070026F
:103E2000914204D9026822F070020A4302602078AD
:103E300080070AD5E068296801F00F01884204D99B
:103E4000296821F00F01014329602078C0073ED086
:103E50005B49A2682868183920F470601043286014
:103E60006068022818D0032819D00968012819D0E1
:103E7000490700294ADADFF848A1AAF1080A00E058
:103E800044E0DAF8002022F007020243CAF80020DA
:103E9000FFF72CF8814612E009688903E9E7096811
:103EA0008901E6E7C905E4E7FFF720F8A0EB09017F
:103EB00041F28830814202D90320BDE8F09F616859
:103EC000DAF8000000F03800B0EBC10FECD1207838
:103ED00080070AD5E068296801F00F01884204D202
:103EE000296821F00F0101432960D8F800104046ED
:103EF00001F00F01B9420BD9016821F00F013943DC
:103F00000160006800F00F00B84201D00120D4E742
:103F1000207840070AD52069296801F0700188429D
:103F200004D2296821F0700101432960207800073C
:103F30000AD56069316801F07001884204D23168A5
:103F400021F07001014331602078C0060AD5A069D4
:103F5000316801F4E061884204D2316821F4E06103
:103F600001433160207880060CD5E1695846DBF8C2
:103F7000002002F07002914204D2026822F0700226
:103F80000A43026000F06CF80E492A682B68C2F3FD
:103F9000032203F00F038A5CC95C02F01F0201F0E8
:103FA0001F01D040084A20FA01F11160074908605A
:103FB00007480068BDE8F05FFEF7CCBF0020005264
:103FC000184402587CB00008580000245400002413
:103FD0004C00002430B500F043F80B4A0B490C4B61
:103FE00015681468C5F3032204F00F048A5C095DA8
:103FF00002F01F0201F01F01D040064A20FA01F131
:1040000019601060084630BD184402587CB00008A2
:10401000580000245400002400B5FFF7DBFF0549D9
:104020000968054AC1F30211515C01F01F01C84043
:1040300000BD00001C4402587CB0000800B5FFF72A
:10404000C9FF05490968054AC1F30221515C01F025
:104050001F01C84000BD00001C4402587CB000088D
:10406000454970B545480968434B103B11F038028B
:1040700008D00111082A03D0102A0BD0182A0BD01F
:10408000084670BD19688906FBD51968C1F3C101DE
:10409000C84070BD3A4870BD3749374D18310C1DC6
:1040A00024350A68096826682D6802F0030406F0C2
:1040B0000102C1F30511C5F3CC0515FB02F200EEB8
:1040C000102AB8EE400AE9B32F4ADFED2E0AB7EE08
:1040D000001A6CB1DFED2D1A012C01D0022C43D057
:1040E00002EE101A1068F8EE422A81EEA22A1EE0B3
:1040F0001C68A40611D51B6801EE901A1168C3F361
:10410000C103F8EE612AD84001EE900AC1F308001D
:10411000F8EE611A81EEA22A0BE001EE901ADFEDB3
:104120001C2A00BFF8EE611A106882EEA12AC0F3C3
:10413000080001EE900AF8EE611A40EE201A31EE06
:10414000810A00E015E022EE000A1068C0F3462064
:10415000401C00EE900AF8EE600A80EE201ABCEED9
:10416000C10A10EE100A70BD01EE901ADFED092AA7
:10417000D8E7002070BD0000104402580090D00322
:1041800040787D0100000039304402580024744A10
:104190000024744C20BCBE4B2DE9F05F04007DD0A0
:1041A000FF4F2078FE4D1837DFF8F493103DC0071D
:1041B00048D0D9F80000396800F03800102815D030
:1041C000182803D101F0030002280FD06068B0F571
:1041D000803F12D010B1B0F5A02F18D0286820F47D
:1041E00080302860286820F4802009E02868800357
:1041F00028D560680028D2D024E0286840F48030B8
:104200002860606888B1FEF771FE064609E02868FC
:1042100040F480202860F0E7FEF768FE801B6428E9
:104220006FD828688003F7D50CE0FEF75FFE0646DE
:1042300005E000BFFEF75AFE801B6428F0D828680E
:104240008003F7D4207841F20308D54E0C3E800756
:1042500069D5D9F80000396810F038000ED0182858
:1042600001D188070AD0E06890B3296821F01901CC
:1042700001432960FEF73AFE824631E02868400794
:1042800002D5E06800288AD0E168286820F019008B
:1042900008432860FEF72AFE824607E0DFE000BF01
:1042A000FEF724FEA0EB0A000228B9D828684007D0
:1042B000F6D500BFFEF714FE40451BD82069402804
:1042C00012D0316821F47C3141EA003030602AE0BC
:1042D00018E000BFFEF70AFEA0EB0A0002289FD8F4
:1042E00028684007F6D5E5E7306820F47C3040F4D4
:1042F0000030EBE7207C316821F0FE4141EA0060AC
:10430000E4E70DE1286820F001002860FEF7EEFDEB
:10431000824605E0FEF7EAFDA0EB0A0002288DD8F0
:1043200028684007F6D42078C0065DD5D9F800008B
:10433000DFF86CB2396800F03800ABF1040B0828E4
:1043400010D0182803D101F0030001280AD0E06939
:104350000028286838D040F080002860FEF7C6FDAD
:10436000824623E02868C00523D5E069802876D1FD
:104370001FE0206A202821D0316821F0F84141EA6D
:104380008060306030E000BF94F82010DBF800203F
:1043900022F07C5242EA0161CBF8001024E000BF19
:1043A000FEF7A4FDA0EB0A00022898D82868C005F3
:1043B000F6D5FEF795FD4045E6D8DAE7306820F0FF
:1043C000F84040F08040DCE720F080002860FEF7F5
:1043D0008DFD064605E000BFFEF788FD801B022824
:1043E0009DD82868C005F7D42078000729D56C48E7
:1043F0006169643000298046016811D041F00101F3
:104400000160FEF773FD064605E000BFFEF76EFD96
:10441000801B0228C9D8D8F800008007F6D510E024
:1044200021F001010160FEF761FD064605E000BFD5
:10443000FEF75CFD801B022872D8D8F800008007C8
:10444000F6D42078800623D5A0690028286810D0EB
:1044500040F480502860FEF749FD064605E036E14D
:10446000FEF744FD801B02285AD828688004F7D53F
:104470000EE020F480502860FEF738FD064604E088
:10448000FEF734FD801B02284AD828688004F7D440
:10449000207840074FD5DFF80C81D8F8001041F4A0
:1044A0008071C8F80010FEF721FD064605E000BF48
:1044B000FEF71CFD801B642832D8D8F80000C00528
:1044C000F6D5374EA068603601280AD008B1052815
:1044D00013D0306820F001003060306820F0040014
:1044E00002E0306840F001003060A06841F2883A94
:1044F00090B1FEF7FBFC80460AE0306840F0040013
:104500003060EEE7FEF7F2FCA0EB0801514507D85A
:1045100030688007F6D50EE0FEF7E8FC804607E03D
:1045200084E000BFFEF7E2FCA0EB080151457DD816
:1045300030688007F6D4606AB0B3DFF86480D9F8D9
:10454000001008F120084FF6F87B08F10409C1F3C8
:10455000C2010329A8F1040A69D00228286820F0C2
:104560008070286003D0FEF7C1FC044684E0FEF7AB
:10457000BDFC064605E000BFFEF7B8FC801B022824
:1045800077D828688001F7D4E26A40F2F3313868BE
:1045900054F8283F884340EA02101843386004E08A
:1045A0001044025800480258B5E0217B4346228956
:1045B0004FF4FE0C208A4FF0FE474902267D521E22
:1045C000401EA1F50071C2F308088AB2761E0CEAFB
:1045D000004042EA08020243504607EA06610A43E5
:1045E0001A60DAF8002022F00102CAF80020D9F897
:1045F0000020266A22EA0B0242EAC602C9F800201D
:10460000DAF80010A26921F00C011143CAF8001079
:104610000168E26921F0020111430160016841F47F
:1046200080310160016841F4003101E021E027E0C0
:104630000160016841F480210160016841F00101DD
:104640000160286840F080702860FEF74FFC044647
:1046500005E000BFFEF74AFC001B022809D82868C5
:104660008001F7D557E000BFFEF740FC001B022891
:1046700002D90320BDE8F09F28688001F4D44AE005
:1046800039680128D8F8000021D0A26A01F003039C
:1046900093421CD1E26AC1F305118A4217D1216B02
:1046A000C0F30802491E8A4211D1616BC0F3462251
:1046B000491E91420BD1A16BC0F30642491E9142A3
:1046C00005D1E16BC0F30660491E814201D0012093
:1046D000D0E7A16C4E46D9F80000C0F3CC0081426F
:1046E00019D0DAF80000554620F00100CAF80000A1
:1046F000FEF7FCFB4FEA0007FEF7F8FBB842FBD0E1
:10470000A26C306820EA0B0040EAC20030602868E2
:1047100040F0010028600020ACE7401EB0F1807F2F
:1047200010B501D3012010BD4FF0E02460610F21CE
:10473000601703F060FC0020A0610721216110BD1B
:1047400070477047704700002DE9F04390F83C2017
:10475000012A42D0012280F83C2051F80C4BDFF8AE
:1047600080804FF0000991E8680051E9022723F4A6
:104770004073B1F80CC03B43CF6923F4806313430B
:10478000026823F40063234323F4805343EA0503C0
:1047900023F4005343EA060323F4804343EA070368
:1047A0000C3923F47023424543EA0C4302D00D4CEC
:1047B000A2420CD18D8C23F47006D1E9073446EA6D
:1047C000055121F08071194321F000732343536494
:1047D00080F83C900020BDE8F0830220FBE7000059
:1047E0000000014000040140F0B590F83C20012A8F
:1047F0003BD01F4E012480F83C40022280F83D202F
:1048000002681C4D5368B242D2F808C001D0AA42D7
:1048100003D14F6823F470033B430F6823F0700308
:104820001F4357600268B24213D0B2F1804F10D0DC
:10483000114B9A420DD0114B9A420AD0104B9A421A
:1048400007D0AA4205D00F4B9A4202D00E4B9A4293
:1048500004D189682CF0800319439160002180F80D
:104860003D4080F83C100846F0BD0220F0BD00003D
:104870000000014000040140000400400008004026
:10488000000C0040001800400040014010B504003A
:1048900003D094F83D0010B107E0012010BD0020C6
:1048A00084F83C00204600F023F8022084F83D0004
:1048B0002068211D02F09CF8012084F8480084F84B
:1048C0003E0084F83F0084F8400084F8410084F8FA
:1048D000420084F8430084F8440084F8450084F8DA
:1048E000460084F8470084F83D00002010BD000019
:1048F00070B586B0044614216846FBF7A1FF3F4817
:1049000021683F4A81420ED1106840F001001060DA
:1049100010680022114600F0010005901B20FEF7F0
:10492000A3FB1B2043E03748B1F1804F08D0364B42
:10493000994240D1016841F002010160006859E0EC
:10494000016841F001010160006800F0010005907C
:104950002C480838016841F001010160016801F04C
:1049600001010591016841F0020101600068022522
:104970000024694600F0020005900126A80300907B
:10498000CDE901542148CDE90346FEF785F9082019
:104990000090CDE901541E486946CDE90346FEF773
:1049A0007BF900221C201146FEF75EFB1C20FEF75F
:1049B0004DFB06B070BD174B994208D1016841F01C
:1049C00004010160006800F004000590F1E7124B5B
:1049D000994207D1016841F008010160006800F0C8
:1049E0000800F2E70D488142E3D1106840F0020070
:1049F0001060106800F00200E7E7000000000140CE
:104A0000F0440258E84402580004004000000258F4
:104A10000004025800080040000C0040000401405F
:104A2000016841F21113CA6822F00102CA600168EC
:104A30000A6A1A4207D10A6A9B101A4203D10A680D
:104A400022F001020A60012180F83D100020704729
:104A500070B5044690F83C000025012814D03A4B6C
:104A6000012684F83C60022084F83D0022689068AA
:104A7000184020F47F409060086870282FD010DC28
:104A800010F00F0F03D022E04FF0020070BD4FEA8C
:104A90002012072A1BD2DFE802F0535353534B393D
:104AA0004100B0F1101F4BD009DCB0F5805F0FD092
:104AB000B0F5005F1ED0B0F5801F08D140E0A0F532
:104AC000801120393CD010293AD0202938D0012536
:104AD00084F83D60002084F83C00284670BD4A6898
:104AE0002068D1E9021301F0F2FF2068816841F0EB
:104AF000770109E04A682068D1E9021301F0E7FF75
:104B00002068816841F480418160E1E7CA684968B2
:104B1000206802F0FBF92068502106E0CA68496865
:104B2000206802F045FA2068602101F0D9FFCFE744
:104B3000CA684968206802F0E9F920684021F4E772
:104B4000226801461046F0E788FFCEFF10B50068E6
:104B50004FF08041884219D11048012440F2F233CD
:104B60004288521C92B242800A2A10D09A4202D144
:104B70004A6A026104708288521C92B282800A2AB8
:104B800008D09A4202D1496A8161447010BD4A6AD4
:104B9000C260F0E7496A416110BD000018000024BE
:104BA0002DE9F041054690F83C0000260C4601280E
:104BB00010D0012085F83C0072B1042A1CD0082ACC
:104BC0002CD00C2A51D00126002085F83C0030461C
:104BD000BDE8F0810220FBE7E3682868D4E9001211
:104BE00002F0A6F92868816921F00C01816128682A
:104BF0008169A26811430FE0E3682868D4E90012D4
:104C000002F0E8F92868816921F44061816128682F
:104C10008169A26841EA02218161D5E7D4E90023D4
:104C20002868217B076A4FF4206C090727F48077F6
:104C300007620CEA0222C769D0F820C027F00307F8
:104C40001F432CF4206C27F0F00342EA0C0243EAE5
:104C50001161C16102622868C16921F00C01C16162
:104C60002868A268C169114329E02868D4E90032A4
:104C7000E168076A4FF6FF7C4FF4204E27F4805717
:104C800007620CEA0131C769D0F820C00EEA03338D
:104C900027F4407747EA02222CF4204C22F4704299
:104CA0001143C16143EA0C0303622868C16921F41E
:104CB0004061C1612868A168C26942EA0121C161FD
:104CC00082E710B5040003D094F83D0010B107E06E
:104CD000012010BD002084F83C00204600F022F89E
:104CE000022084F83D002068211D01F081FE012092
:104CF00084F8480084F83E0084F83F0084F84000BF
:104D000084F8410084F8420084F8430084F84400A9
:104D100084F8450084F8460084F8470084F83D0094
:104D2000002010BD704770B5044600680025016979
:104D3000C943890715D4C168C943890711D4EA1E3C
:104D4000026101212177206880698007204602D016
:104D5000FFF7FCFE04E000F0FDF8204600F0C0F98B
:104D6000257720680169C943490717D4C168C94339
:104D7000490713D402216FF00402026121772068F1
:104D8000806910F4407F204602D0FFF7DFFE04E088
:104D900000F0E0F8204600F0A3F9257720680169CB
:104DA000C943090716D4C168C943090712D40421AD
:104DB0006FF00802026121772068C06980072046F1
:104DC00002D0FFF7C3FE04E000F0C4F8204600F074
:104DD00087F9257720680169C943C90617D4C168D6
:104DE000C943C90613D408216FF01002026121776C
:104DF0002068C06910F4407F204602D0FFF7A6FE6D
:104E000004E000F0A7F8204600F06AF92577206852
:104E10000169C943C90708D1C168C943C90704D199
:104E2000891E0161204600F07BFA20680169C943B0
:104E3000090609D4C168C943090605D46FF0800189
:104E400001612046FFF77DFC20680169C943C9055F
:104E500009D4C168C943090605D46FF480710161A2
:104E60002046FFF76DFC20680169C943490609D453
:104E7000C168C943490605D46FF04001016120466D
:104E800000F093FA20680169C94389060BD4C16810
:104E9000C943890607D46FF0200101612046BDE8AF
:104EA0007040FFF74FBC70BD70B586B0044614214A
:104EB0006846FBF7C5FC214A4FF002052168002433
:104EC0001F48914223D1016841F00101016001684E
:104ED00001F001010591016841F400710160006871
:104EE0000126694600F40070059090150090CDE908
:104EF00001541448CDE90346FDF7CEFEA802009008
:104F0000CDE9015410486946CDE9034612E00F4A45
:104F1000914211D1016841F00201016000686946C7
:104F200000F00200059030200090CDE901540848BF
:104F3000CDE90345FDF7B0FE06B070BD00000140AD
:104F4000E0440258000002580024025800040040C7
:104F500000040258704770B5044690F83C000026E3
:104F60000D4601280BD0012084F83C000C2A4AD0C1
:104F700007DC82B1042A20D0082A06D131E00220C1
:104F800070BD102A53D0142A63D00126002084F863
:104F90003C00304670BD206801F0ACFD206881699E
:104FA00041F0080181612068816921F0040181617B
:104FB00020682A698169114311E0206801F0EEFD43
:104FC0002068816941F4006181612068816921F470
:104FD0008061816120682969826942EA01218161D9
:104FE000D4E7206801F026FE2068C16941F008017D
:104FF000C1612068C16921F00401C16120682A698A
:10500000C169114311E0206801F060FE2068C169A8
:1050100041F40061C1612068C16921F48061C1610E
:1050200020682969C26942EA0121C161AEE72068AE
:1050300001F088FE2068416D41F00801416520685B
:10504000416D21F00401416520682A69416D1143D9
:1050500011E0206801F0B0FE2068416D41F400616C
:1050600041652068416D21F48061416520682969AE
:10507000426D42EA0121416588E710B5040003D082
:1050800094F83D0010B107E0012010BD002084F825
:105090003C00204600F022F8022084F83D00206801
:1050A000211D01F0A5FC012084F8480084F83E0091
:1050B00084F83F0084F8400084F8410084F84200FE
:1050C00084F8430084F8440084F8450084F84600DE
:1050D00084F8470084F83D00002010BD70470000B0
:1050E00070B5164904460068884226D1207F144DC9
:1050F00001280ED11349E888401C80B2E880098855
:1051000088421AD110A004F0ADFC1548002100F02F
:105110008FF8207F022810D112492889401C80B2C4
:1051200028810988884208D10FA004F09BFCBDE8C3
:1051300070400B48042100F07BB870BD00000140B6
:10514000180000241400002450776D4E756D5F43E5
:1051500068616E6E656C31203D2025640A00000098
:10516000080300241600002450776D4E756D5F43D0
:1051700068616E6E656C32203D2025640A00000077
:1051800030B50022044600680D4601F093FC41F260
:105190001111224B20688A1098420BD0204B984264
:1051A00008D0204B984205D01F4B984202D01F4B8D
:1051B000984209D1036A0B4206D1036A134203D114
:1051C000436C23F4004343642068036A0B4206D116
:1051D000016A114203D1016821F0010101604FF021
:1051E00001005DB1042D0CD0082D0DD00C2D0ED07A
:1051F000102D0FD084F84300002030BD84F83E000D
:10520000FAE784F83F00F7E784F84000F4E784F811
:105210004100F1E784F84200EEE7000000000140A1
:1052200000040140004001400044014000480140AA
:1052300070B50D0004464FF0000607D0042D0AD0CB
:10524000082D0DD00C2D10D001264DE02068C1682E
:1052500021F002010DE02068C16821F0040108E09E
:105260002068C16821F0080103E02068C16821F0CE
:105270001001C16020680022294601F01BFC41F2A8
:105280001111224B20688A1098420BD0204B984273
:1052900008D0204B984205D01F4B984202D01F4B9C
:1052A000984209D1036A0B4206D1036A134203D123
:1052B000436C23F4004343642068036A0B4206D125
:1052C000016A114203D1016821F0010101604FF030
:1052D00001005DB1042D0CD0082D0DD00C2D0ED089
:1052E000102D0FD084F84300304670BD84F83E0086
:1052F000FAE784F83F00F7E784F84000F4E784F821
:105300004100F1E784F84200EEE7000000000140B0
:1053100000040140004001400044014000480140B9
:105320000B4910B5884211D108680169C943890742
:105330000CD46FF002010161054800214C38FFF7E1
:105340001FFFBDE810400248FFF76ABB10BD000018
:10535000EC03002470B5044690F83C00012812D0FC
:10536000012584F83C50022084F83D00204601F0DD
:105370005DFD00284FF0000007D084F83D5084F810
:105380003C00012070BD022070BD2168CA6822F077
:105390004002CA602168CA6822F48042CA6084F868
:1053A0003D5084F83C00002070BD704730B590F847
:1053B0008410012918D0012280F884202421C0F80B
:1053C00088100022202401680B680D6823F0005328
:1053D00025F001050D60426601680B60C0F8884049
:1053E00080F88420104630BD022030BD70477047E1
:1053F00070B5044690F8840001281DD0012284F87D
:1054000084202420C4F8880020680568026822F0FF
:10541000010202602068826822F060620A438260B2
:10542000204601F055FE2268202100201560C4F8B6
:10543000881084F8840070BD022070BD70B50446E9
:1054400090F8840001281DD0012284F884202420B3
:10545000C4F8880020680568026822F00102026032
:105460002068826822F060420A438260204601F090
:105470002FFE2268202100201560C4F8881084F8CF
:10548000840070BD022070BD7047704770B5016820
:105490000446D0F888001025D4F88C608968090685
:1054A00018D5212816D12068083050E8001F21F0B7
:1054B000800140E80012002AF5D1E06F38B1FCF716
:1054C00053FA20B1E06FFCF741FD202823D020469D
:1054D00001F0AAFF2068806840061AD5222E18D154
:1054E0002068083050E8001F21F0400140E8001219
:1054F000002AF5D1D4F8800040B1FCF735FA28B184
:10550000D4F88000FCF722FD202804D0204601F0CA
:1055100061FF002070BDC4F89050032070BD70473B
:105520002DE9F04107680025044640F60F030226E6
:10553000F8693968BA6818420AD183067ED501F045
:10554000200302F0805C53EA0C0377D0616F74E1B2
:10555000CF4BDFF840C3134001EA0C0C53EA0C0CAC
:105560006CD05FEAC07C0CD05FEAC15C09D54FF01B
:10557000010CC7F820C0D4F8907047F00107C4F8B8
:105580009070870709D5D70707D027683E62D4F8FF
:10559000906046F00406C4F8906046070AD5D60726
:1055A00008D0276804263E62D4F8906046F00206D0
:1055B000C4F8906006070CD501F020061E4308D001
:1055C000266808233362D4F8903043F00803C4F807
:1055D000903003050BD54B0109D526684FF40063C5
:1055E0003362D4F8903043F02003C4F89030D4F8FC
:1055F0009030002B3DD0800609D501F0200002F04C
:105600008051084303D0616F09B120468847216863
:10561000D4F890008968490602D410F0280F2AD0E7
:10562000204601F0D7FE2068806840061ED520681D
:10563000083050E8001F21F0400100E021E040E880
:105640000012002AF3D1D4F8800078B192490165A4
:10565000D4F88000FCF738FB00280AD0D4F880008A
:10566000016D00E02046BDE8F04108472046FFF705
:1056700056FFBDE8F0812046FFF751FFC4F8905077
:10568000F7E7D4F86CC02023BCF1010F7ED15FEAAC
:10569000C06C7BD55FEAC16C78D510203862206879
:1056A0008068400673D5D4F880107C4A0868904220
:1056B00034D07A4A1832904230D0784A3032904210
:1056C0002CD0764A4832904228D0744A60329042B8
:1056D00024D0724A7832904220D0704A9032904260
:1056E0001CD06E4AA832904218D06D4A904215D014
:1056F0006B4A1832904211D0694A303290420DD034
:10570000674A4832904209D0654A6032904205D0DB
:10571000634A7832904201D0614A90324068000476
:10572000000CA6D0B4F85C208242A2D9A4F85E0096
:10573000C869B0F5807F2FD0216851E8000F20F4B0
:10574000807041E80002002AF6D12068083050E855
:10575000001F21F0010140E80012002AF5D1206865
:10576000083050E8001F21F0400140E80012002AF4
:10577000F5D1C4F88C30E566216851E8000F20F0BF
:10578000100041E80002002AF6D101E040E00BE001
:10579000D4F88000FCF7E8F82667B4F85C00B4F8A9
:1057A0005E10401A81B22FE0B4F85C00B4F85E10CD
:1057B000B4F85E20401A81B2002AB2D00029B0D0DD
:1057C000226852E8000F20F4907042E80007002F92
:1057D000F6D1344F206800F1080050E8002F02EAAB
:1057E000070240E8002CBCF1000FF3D1C4F88C3064
:1057F000E5666567206850E8002F22F0100240E857
:105800000023002BF6D126672046FFF7EFFD30E797
:10581000C60209D5560207D54FF4801038622046DB
:10582000BDE8F041FFF731BE06060AD501F080065B
:1058300002F40002164304D0A16F00297FF412AFD6
:1058400017E7420611D54A060FD52046026852E8EE
:10585000001F21F0400142E80014002CF6D1C0F8EE
:105860008830856700F090FA03E7020206D54A0007
:1058700004D52046BDE8F041FFF706BEC001C6D5FD
:105880000029C4DA2046BDE8F041FFF7B0BD0000B2
:10589000010000102001000487720008100002407F
:1058A00010040240FEFFFFEF10B5040003D0D4F84F
:1058B000880010B107E0012010BD002084F88400AA
:1058C000204600F027F82420C4F8880020680168EA
:1058D00021F001010160204602F026F80128EBD0FA
:1058E000A06A10B1204601F015FC2068416821F43F
:1058F000904141602068816821F02A018160206820
:10590000016841F0010101602046BDE8104001F04E
:1059100065BC00002DE9F04FB7B00546142130A852
:10592000FAF78EFFC0216846FAF78AFF854F0226F4
:10593000854900242868083FDFF808824FF4806B0F
:1059400088424FF0400A5ED100201E940221CDE92A
:1059500000106846FDF73AFD08B1FBF7ECFFD8F8F8
:10596000001041F40021C8F80010D8F8000000F43D
:1059700000203590386840F0010038603868062112
:1059800000F0010035904FF4C0503090CDE9316403
:10599000CDE933416D4830A9FDF77EF96C4E3F22C9
:1059A0006C49D846304686E81600C6E9034B746158
:1059B000B461F46134627462FCF73EFE08B1FBF737
:1059C000BAFF634F5046634A7837C5F88060183293
:1059D000B563E7E8022A87E81101FC603C615C4896
:1059E0007C61BC617830FC61083FFCF725FE08B1A2
:1059F000FBF7A1FF0022EF6734201146BD63FDF7DE
:105A000033FB342032E054494FF00709884232D149
:105A100000201F940121CDE900106846FDF7D6FC57
:105A200008B1FBF788FF47480830016841F01001D2
:105A30000160006800F010003590386840F0010007
:105A4000386038684FF4C061309130A900F001002F
:105A5000CDE931643394CDE934903C48FDF71CF92D
:105A6000002225201146FDF7FFFA2520FDF7EEFA6A
:105A700037B0BDE8F08F39498842F9D100201E9433
:105A80000221CDE900106846FDF7A0FC08B1FBF744
:105A900052FFD8F8001041F40031C8F80010D8F8CF
:105AA000000000F400303590386840F0080038609D
:105AB00038686021309130A900F00800CDE93164E8
:105AC0003394CDE934902648FDF7E6F8204E2B219B
:105AD00024485F46F03686E81300C6E9034B74613C
